{"contracts/SupplyChain.sol":{"SupplyChain":{"abi":[{"anonymous":false,"inputs":[{"indexed":true,"internalType":"uint256","name":"itemId","type":"uint256"},{"indexed":false,"internalType":"string","name":"itemName","type":"string"},{"indexed":false,"internalType":"uint256","name":"totalQty","type":"uint256"}],"name":"ItemAdded","type":"event"},{"anonymous":false,"inputs":[{"indexed":true,"internalType":"uint256","name":"itemId","type":"uint256"},{"indexed":false,"internalType":"string","name":"reason","type":"string"}],"name":"ItemBlocked","type":"event"},{"anonymous":false,"inputs":[{"indexed":true,"internalType":"uint256","name":"itemId","type":"uint256"},{"indexed":false,"internalType":"address","name":"previousOwner","type":"address"},{"indexed":false,"internalType":"address","name":"newOwner","type":"address"}],"name":"OwnershipTransferred","type":"event"},{"inputs":[{"internalType":"uint256","name":"_itemId","type":"uint256"},{"internalType":"uint256","name":"_qty","type":"uint256"},{"internalType":"int256","name":"sensedTemperature","type":"int256"}],"name":"accessItem","outputs":[],"stateMutability":"nonpayable","type":"function"},{"inputs":[{"internalType":"uint256","name":"_itemId","type":"uint256"},{"internalType":"string","name":"_itemName","type":"string"},{"internalType":"uint256","name":"_mfDate","type":"uint256"},{"internalType":"uint256","name":"_expDate","type":"uint256"},{"internalType":"uint256","name":"_totalQty","type":"uint256"},{"internalType":"int256","name":"_minTemp","type":"int256"},{"internalType":"int256","name":"_maxTemp","type":"int256"}],"name":"addItem","outputs":[],"stateMutability":"nonpayable","type":"function"},{"inputs":[{"internalType":"string","name":"_itemName","type":"string"},{"internalType":"uint256","name":"_qty","type":"uint256"},{"internalType":"int256","name":"sensedTemperature","type":"int256"}],"name":"claimOwnershipByName","outputs":[],"stateMutability":"nonpayable","type":"function"},{"inputs":[],"name":"distributor","outputs":[{"internalType":"address","name":"","type":"address"}],"stateMutability":"view","type":"function"},{"inputs":[{"internalType":"uint256","name":"_itemId","type":"uint256"}],"name":"getItemDetails","outputs":[{"internalType":"string","name":"itemName","type":"string"},{"internalType":"uint256","name":"manufacturingDate","type":"uint256"},{"internalType":"uint256","name":"expiryDate","type":"uint256"},{"internalType":"uint256","name":"totalQuantity","type":"uint256"},{"internalType":"uint256","name":"distributorStock","type":"uint256"},{"internalType":"uint256","name":"retailerStock","type":"uint256"},{"internalType":"uint256","name":"customerStock","type":"uint256"},{"internalType":"int256","name":"minTemperature","type":"int256"},{"internalType":"int256","name":"maxTemperature","type":"int256"},{"internalType":"bool","name":"isItemBlocked","type":"bool"}],"stateMutability":"view","type":"function"},{"inputs":[{"internalType":"string","name":"_itemName","type":"string"}],"name":"getItemIdByName","outputs":[{"internalType":"uint256","name":"","type":"uint256"}],"stateMutability":"view","type":"function"},{"inputs":[{"internalType":"uint256","name":"","type":"uint256"}],"name":"items","outputs":[{"internalType":"uint256","name":"itemId","type":"uint256"},{"internalType":"string","name":"itemName","type":"string"},{"internalType":"uint256","name":"itemMfD","type":"uint256"},{"internalType":"uint256","name":"itemExpD","type":"uint256"},{"internalType":"uint256","name":"totalQty","type":"uint256"},{"internalType":"uint256","name":"distributorQty","type":"uint256"},{"internalType":"uint256","name":"retailerQty","type":"uint256"},{"internalType":"uint256","name":"customerQty","type":"uint256"},{"internalType":"address","name":"currentOwner","type":"address"},{"internalType":"int256","name":"minTemp","type":"int256"},{"internalType":"int256","name":"maxTemp","type":"int256"},{"internalType":"bool","name":"isBlocked","type":"bool"}],"stateMutability":"view","type":"function"},{"inputs":[],"name":"retailer","outputs":[{"internalType":"address","name":"","type":"address"}],"stateMutability":"view","type":"function"},{"inputs":[{"internalType":"address","name":"_distributor","type":"address"}],"name":"setDistributor","outputs":[],"stateMutability":"nonpayable","type":"function"},{"inputs":[{"internalType":"address","name":"_retailer","type":"address"}],"name":"setRetailer","outputs":[],"stateMutability":"nonpayable","type":"function"}],"evm":{"bytecode":{"linkReferences":{},"object":"608060405234801561001057600080fd5b506121a1806100206000396000f3fe608060405234801561001057600080fd5b506004361061009e5760003560e01c806373004ca01161006657806373004ca01461014557806375619ab51461017e578063bfb231d21461019a578063bfe10928146101d5578063dfa49470146101f35761009e565b80630232cc37146100a357806326fd99df146100bf5780632f4e3faa146100db5780634a1f61251461010b5780634c1249fc14610127575b600080fd5b6100bd60048036038101906100b891906114ee565b61020f565b005b6100d960048036038101906100d4919061157e565b6105cc565b005b6100f560048036038101906100f091906114ad565b610941565b6040516101029190611ce9565b60405180910390f35b61012560048036038101906101209190611484565b6109ca565b005b61012f610a0e565b60405161013c9190611a72565b60405180910390f35b61015f600480360381019061015a9190611555565b610a34565b6040516101759a99989796959493929190611ae6565b60405180910390f35b61019860048036038101906101939190611484565b610c74565b005b6101b460048036038101906101af9190611555565b610cb7565b6040516101cc9c9b9a99989796959493929190611d04565b60405180910390f35b6101dd610dcc565b6040516101ea9190611a72565b60405180910390f35b61020d60048036038101906102089190611634565b610df0565b005b600061021a84610941565b90506000811415610260576040517f08c379a000000000000000000000000000000000000000000000000000000000815260040161025790611c69565b60405180910390fd5b60026000828152602001908152602001600020600b0160009054906101000a900460ff16156102c4576040517f08c379a00000000000000000000000000000000000000000000000000000000081526004016102bb90611be9565b60405180910390fd5b826002600083815260200190815260200160002060060154101561031d576040517f08c379a000000000000000000000000000000000000000000000000000000000815260040161031490611cc9565b60405180910390fd5b600160009054906101000a900473ffffffffffffffffffffffffffffffffffffffff1673ffffffffffffffffffffffffffffffffffffffff166002600083815260200190815260200160002060080160009054906101000a900473ffffffffffffffffffffffffffffffffffffffff1673ffffffffffffffffffffffffffffffffffffffff16146103e3576040517f08c379a00000000000000000000000000000000000000000000000000000000081526004016103da90611c89565b60405180910390fd5b60006103ed611284565b90506002600083815260200190815260200160002060090154831280610428575060026000838152602001908152602001600020600a015483135b806104485750600260008381526020019081526020016000206003015481115b156104b957600160026000848152602001908152602001600020600b0160006101000a81548160ff021916908315150217905550817f0789eb0c3dd244c89eb473edfce19f6fa594826f1f0faf2cf3908f7fd3837bcd6040516104aa90611ca9565b60405180910390a250506105c7565b836002600084815260200190815260200160002060060160008282546104df9190611f2e565b925050819055508360026000848152602001908152602001600020600701600082825461050c9190611e4d565b92505081905550336002600084815260200190815260200160002060080160006101000a81548173ffffffffffffffffffffffffffffffffffffffff021916908373ffffffffffffffffffffffffffffffffffffffff160217905550817f16b85f49bf01212961345d3016c9a531894accf62eb7680f2045d79185cc0ec0600160009054906101000a900473ffffffffffffffffffffffffffffffffffffffff16336040516105bc929190611a8d565b60405180910390a250505b505050565b60008054906101000a900473ffffffffffffffffffffffffffffffffffffffff1673ffffffffffffffffffffffffffffffffffffffff163373ffffffffffffffffffffffffffffffffffffffff161461065a576040517f08c379a000000000000000000000000000000000000000000000000000000000815260040161065190611c29565b60405180910390fd5b60006002600089815260200190815260200160002060000154146106b3576040517f08c379a00000000000000000000000000000000000000000000000000000000081526004016106aa90611c09565b60405180910390fd5b60006003876040516106c59190611a5b565b90815260200160405180910390205414610714576040517f08c379a000000000000000000000000000000000000000000000000000000000815260040161070b90611b89565b60405180910390fd5b838510610756576040517f08c379a000000000000000000000000000000000000000000000000000000000815260040161074d90611ba9565b60405180910390fd5b604051806101800160405280888152602001878152602001868152602001858152602001848152602001848152602001600081526020016000815260200160008054906101000a900473ffffffffffffffffffffffffffffffffffffffff1673ffffffffffffffffffffffffffffffffffffffff168152602001838152602001828152602001600015158152506002600089815260200190815260200160002060008201518160000155602082015181600101908051906020019061081c92919061133a565b5060408201518160020155606082015181600301556080820151816004015560a0820151816005015560c0820151816006015560e082015181600701556101008201518160080160006101000a81548173ffffffffffffffffffffffffffffffffffffffff021916908373ffffffffffffffffffffffffffffffffffffffff160217905550610120820151816009015561014082015181600a015561016082015181600b0160006101000a81548160ff021916908315150217905550905050866003876040516108ec9190611a5b565b908152602001604051809103902081905550867f0444434676a57f70f8479401c50fb4add3e31052f88f4b35e155b7759e5968e58785604051610930929190611ab6565b60405180910390a250505050505050565b6000806003836040516109549190611a5b565b90815260200160405180910390205414156109a4576040517f08c379a000000000000000000000000000000000000000000000000000000000815260040161099b90611c69565b60405180910390fd5b6003826040516109b49190611a5b565b9081526020016040518091039020549050919050565b80600160006101000a81548173ffffffffffffffffffffffffffffffffffffffff021916908373ffffffffffffffffffffffffffffffffffffffff16021790555050565b600160009054906101000a900473ffffffffffffffffffffffffffffffffffffffff1681565b6060600080600080600080600080600080600260008d8152602001908152602001600020600001541415610a9d576040517f08c379a0000000000000000000000000000000000000000000000000000000008152600401610a9490611c69565b60405180910390fd5b6000600260008d81526020019081526020016000206040518061018001604052908160008201548152602001600182018054610ad890611ff6565b80601f0160208091040260200160405190810160405280929190818152602001828054610b0490611ff6565b8015610b515780601f10610b2657610100808354040283529160200191610b51565b820191906000526020600020905b815481529060010190602001808311610b3457829003601f168201915b505050505081526020016002820154815260200160038201548152602001600482015481526020016005820154815260200160068201548152602001600782015481526020016008820160009054906101000a900473ffffffffffffffffffffffffffffffffffffffff1673ffffffffffffffffffffffffffffffffffffffff1673ffffffffffffffffffffffffffffffffffffffff16815260200160098201548152602001600a8201548152602001600b820160009054906101000a900460ff161515151581525050905080602001518160400151826060015183608001518460a001518560c001518660e001518761012001518861014001518961016001519a509a509a509a509a509a509a509a509a509a50509193959799509193959799565b806000806101000a81548173ffffffffffffffffffffffffffffffffffffffff021916908373ffffffffffffffffffffffffffffffffffffffff16021790555050565b6002602052806000526040600020600091509050806000015490806001018054610ce090611ff6565b80601f0160208091040260200160405190810160405280929190818152602001828054610d0c90611ff6565b8015610d595780601f10610d2e57610100808354040283529160200191610d59565b820191906000526020600020905b815481529060010190602001808311610d3c57829003601f168201915b5050505050908060020154908060030154908060040154908060050154908060060154908060070154908060080160009054906101000a900473ffffffffffffffffffffffffffffffffffffffff169080600901549080600a01549080600b0160009054906101000a900460ff1690508c565b60008054906101000a900473ffffffffffffffffffffffffffffffffffffffff1681565b600160009054906101000a900473ffffffffffffffffffffffffffffffffffffffff1673ffffffffffffffffffffffffffffffffffffffff163373ffffffffffffffffffffffffffffffffffffffff1614610e80576040517f08c379a0000000000000000000000000000000000000000000000000000000008152600401610e7790611bc9565b60405180910390fd5b600060026000858152602001908152602001600020600001541415610eda576040517f08c379a0000000000000000000000000000000000000000000000000000000008152600401610ed190611c69565b60405180910390fd5b60026000848152602001908152602001600020600b0160009054906101000a900460ff1615610f3e576040517f08c379a0000000000000000000000000000000000000000000000000000000008152600401610f3590611be9565b60405180910390fd5b8160026000858152602001908152602001600020600501541015610f97576040517f08c379a0000000000000000000000000000000000000000000000000000000008152600401610f8e90611cc9565b60405180910390fd5b60008054906101000a900473ffffffffffffffffffffffffffffffffffffffff1673ffffffffffffffffffffffffffffffffffffffff166002600085815260200190815260200160002060080160009054906101000a900473ffffffffffffffffffffffffffffffffffffffff1673ffffffffffffffffffffffffffffffffffffffff161461105b576040517f08c379a000000000000000000000000000000000000000000000000000000000815260040161105290611c49565b60405180910390fd5b6000611065611284565b905060026000858152602001908152602001600020600901548212806110a0575060026000858152602001908152602001600020600a015482135b806110c05750600260008581526020019081526020016000206003015481115b1561113057600160026000868152602001908152602001600020600b0160006101000a81548160ff021916908315150217905550837f0789eb0c3dd244c89eb473edfce19f6fa594826f1f0faf2cf3908f7fd3837bcd60405161112290611ca9565b60405180910390a25061127f565b826002600086815260200190815260200160002060050160008282546111569190611f2e565b92505081905550826002600086815260200190815260200160002060060160008282546111839190611e4d565b92505081905550600160009054906101000a900473ffffffffffffffffffffffffffffffffffffffff166002600086815260200190815260200160002060080160006101000a81548173ffffffffffffffffffffffffffffffffffffffff021916908373ffffffffffffffffffffffffffffffffffffffff160217905550837f16b85f49bf01212961345d3016c9a531894accf62eb7680f2045d79185cc0ec060008054906101000a900473ffffffffffffffffffffffffffffffffffffffff16600160009054906101000a900473ffffffffffffffffffffffffffffffffffffffff16604051611275929190611a8d565b60405180910390a2505b505050565b60008042905060006301e1853e8261129c9190611ea3565b6107b26112a99190611e4d565b905060006001600c6228206f856112c09190611ea3565b6112ca9190612028565b6112d49190611e4d565b905060006001601f62015180866112eb9190611ea3565b6112f59190612028565b6112ff9190611e4d565b90508060648361130f9190611ed4565b6127108561131d9190611ed4565b6113279190611e4d565b6113319190611e4d565b94505050505090565b82805461134690611ff6565b90600052602060002090601f01602090048101928261136857600085556113af565b82601f1061138157805160ff19168380011785556113af565b828001600101855582156113af579182015b828111156113ae578251825591602001919060010190611393565b5b5090506113bc91906113c0565b5090565b5b808211156113d95760008160009055506001016113c1565b5090565b60006113f06113eb84611df6565b611dc5565b90508281526020810184848401111561140857600080fd5b611413848285611fb4565b509392505050565b60008135905061142a81612126565b92915050565b60008135905061143f8161213d565b92915050565b600082601f83011261145657600080fd5b81356114668482602086016113dd565b91505092915050565b60008135905061147e81612154565b92915050565b60006020828403121561149657600080fd5b60006114a48482850161141b565b91505092915050565b6000602082840312156114bf57600080fd5b600082013567ffffffffffffffff8111156114d957600080fd5b6114e584828501611445565b91505092915050565b60008060006060848603121561150357600080fd5b600084013567ffffffffffffffff81111561151d57600080fd5b61152986828701611445565b935050602061153a8682870161146f565b925050604061154b86828701611430565b9150509250925092565b60006020828403121561156757600080fd5b60006115758482850161146f565b91505092915050565b600080600080600080600060e0888a03121561159957600080fd5b60006115a78a828b0161146f565b975050602088013567ffffffffffffffff8111156115c457600080fd5b6115d08a828b01611445565b96505060406115e18a828b0161146f565b95505060606115f28a828b0161146f565b94505060806116038a828b0161146f565b93505060a06116148a828b01611430565b92505060c06116258a828b01611430565b91505092959891949750929550565b60008060006060848603121561164957600080fd5b60006116578682870161146f565b93505060206116688682870161146f565b925050604061167986828701611430565b9150509250925092565b61168c81611f62565b82525050565b61169b81611f74565b82525050565b6116aa81611f80565b82525050565b60006116bb82611e26565b6116c58185611e31565b93506116d5818560208601611fc3565b6116de81612115565b840191505092915050565b60006116f482611e26565b6116fe8185611e42565b935061170e818560208601611fc3565b80840191505092915050565b6000611727601883611e31565b91507f4974656d206e616d6520616c72656164792065786973747300000000000000006000830152602082019050919050565b6000611767602d83611e31565b91507f4d616e75666163747572696e672064617465206d757374206265206265666f7260008301527f65206578706972792064617465000000000000000000000000000000000000006020830152604082019050919050565b60006117cd602483611e31565b91507f4f6e6c792072657461696c65722063616e2063616c6c20746869732066756e6360008301527f74696f6e000000000000000000000000000000000000000000000000000000006020830152604082019050919050565b6000611833600f83611e31565b91507f4974656d20697320626c6f636b656400000000000000000000000000000000006000830152602082019050919050565b6000611873601683611e31565b91507f4974656d20494420616c726561647920657869737473000000000000000000006000830152602082019050919050565b60006118b3602783611e31565b91507f4f6e6c79206469737472696275746f722063616e2063616c6c2074686973206660008301527f756e6374696f6e000000000000000000000000000000000000000000000000006020830152604082019050919050565b6000611919601983611e31565b91507f4974656d206e6f742077697468206469737472696275746f72000000000000006000830152602082019050919050565b6000611959601383611e31565b91507f4974656d20646f6573206e6f74206578697374000000000000000000000000006000830152602082019050919050565b6000611999601683611e31565b91507f4974656d206e6f7420776974682072657461696c6572000000000000000000006000830152602082019050919050565b60006119d9601b83611e31565b91507f54656d7065726174757265206f722065787069727920697373756500000000006000830152602082019050919050565b6000611a19601583611e31565b91507f496e73756666696369656e74207175616e7469747900000000000000000000006000830152602082019050919050565b611a5581611faa565b82525050565b6000611a6782846116e9565b915081905092915050565b6000602082019050611a876000830184611683565b92915050565b6000604082019050611aa26000830185611683565b611aaf6020830184611683565b9392505050565b60006040820190508181036000830152611ad081856116b0565b9050611adf6020830184611a4c565b9392505050565b6000610140820190508181036000830152611b01818d6116b0565b9050611b10602083018c611a4c565b611b1d604083018b611a4c565b611b2a606083018a611a4c565b611b376080830189611a4c565b611b4460a0830188611a4c565b611b5160c0830187611a4c565b611b5e60e08301866116a1565b611b6c6101008301856116a1565b611b7a610120830184611692565b9b9a5050505050505050505050565b60006020820190508181036000830152611ba28161171a565b9050919050565b60006020820190508181036000830152611bc28161175a565b9050919050565b60006020820190508181036000830152611be2816117c0565b9050919050565b60006020820190508181036000830152611c0281611826565b9050919050565b60006020820190508181036000830152611c2281611866565b9050919050565b60006020820190508181036000830152611c42816118a6565b9050919050565b60006020820190508181036000830152611c628161190c565b9050919050565b60006020820190508181036000830152611c828161194c565b9050919050565b60006020820190508181036000830152611ca28161198c565b9050919050565b60006020820190508181036000830152611cc2816119cc565b9050919050565b60006020820190508181036000830152611ce281611a0c565b9050919050565b6000602082019050611cfe6000830184611a4c565b92915050565b600061018082019050611d1a600083018f611a4c565b8181036020830152611d2c818e6116b0565b9050611d3b604083018d611a4c565b611d48606083018c611a4c565b611d55608083018b611a4c565b611d6260a083018a611a4c565b611d6f60c0830189611a4c565b611d7c60e0830188611a4c565b611d8a610100830187611683565b611d986101208301866116a1565b611da66101408301856116a1565b611db4610160830184611692565b9d9c50505050505050505050505050565b6000604051905081810181811067ffffffffffffffff82111715611dec57611deb6120e6565b5b8060405250919050565b600067ffffffffffffffff821115611e1157611e106120e6565b5b601f19601f8301169050602081019050919050565b600081519050919050565b600082825260208201905092915050565b600081905092915050565b6000611e5882611faa565b9150611e6383611faa565b9250827fffffffffffffffffffffffffffffffffffffffffffffffffffffffffffffffff03821115611e9857611e97612059565b5b828201905092915050565b6000611eae82611faa565b9150611eb983611faa565b925082611ec957611ec8612088565b5b828204905092915050565b6000611edf82611faa565b9150611eea83611faa565b9250817fffffffffffffffffffffffffffffffffffffffffffffffffffffffffffffffff0483118215151615611f2357611f22612059565b5b828202905092915050565b6000611f3982611faa565b9150611f4483611faa565b925082821015611f5757611f56612059565b5b828203905092915050565b6000611f6d82611f8a565b9050919050565b60008115159050919050565b6000819050919050565b600073ffffffffffffffffffffffffffffffffffffffff82169050919050565b6000819050919050565b82818337600083830152505050565b60005b83811015611fe1578082015181840152602081019050611fc6565b83811115611ff0576000848401525b50505050565b6000600282049050600182168061200e57607f821691505b60208210811415612022576120216120b7565b5b50919050565b600061203382611faa565b915061203e83611faa565b92508261204e5761204d612088565b5b828206905092915050565b7f4e487b7100000000000000000000000000000000000000000000000000000000600052601160045260246000fd5b7f4e487b7100000000000000000000000000000000000000000000000000000000600052601260045260246000fd5b7f4e487b7100000000000000000000000000000000000000000000000000000000600052602260045260246000fd5b7f4e487b7100000000000000000000000000000000000000000000000000000000600052604160045260246000fd5b6000601f19601f8301169050919050565b61212f81611f62565b811461213a57600080fd5b50565b61214681611f80565b811461215157600080fd5b50565b61215d81611faa565b811461216857600080fd5b5056fea264697066735822122090ed0ad97de2fa8b525a06d2f7913ca10419bc88ca1cc569bac66a334facc04d64736f6c63430008000033","opcodes":"PUSH1 0x80 PUSH1 0x40 MSTORE CALLVALUE DUP1 ISZERO PUSH2 0x10 JUMPI PUSH1 0x0 DUP1 REVERT JUMPDEST POP PUSH2 0x21A1 DUP1 PUSH2 0x20 PUSH1 0x0 CODECOPY PUSH1 0x0 RETURN INVALID PUSH1 0x80 PUSH1 0x40 MSTORE CALLVALUE DUP1 ISZERO PUSH2 0x10 JUMPI PUSH1 0x0 DUP1 REVERT JUMPDEST POP PUSH1 0x4 CALLDATASIZE LT PUSH2 0x9E JUMPI PUSH1 0x0 CALLDATALOAD PUSH1 0xE0 SHR DUP1 PUSH4 0x73004CA0 GT PUSH2 0x66 JUMPI DUP1 PUSH4 0x73004CA0 EQ PUSH2 0x145 JUMPI DUP1 PUSH4 0x75619AB5 EQ PUSH2 0x17E JUMPI DUP1 PUSH4 0xBFB231D2 EQ PUSH2 0x19A JUMPI DUP1 PUSH4 0xBFE10928 EQ PUSH2 0x1D5 JUMPI DUP1 PUSH4 0xDFA49470 EQ PUSH2 0x1F3 JUMPI PUSH2 0x9E JUMP JUMPDEST DUP1 PUSH4 0x232CC37 EQ PUSH2 0xA3 JUMPI DUP1 PUSH4 0x26FD99DF EQ PUSH2 0xBF JUMPI DUP1 PUSH4 0x2F4E3FAA EQ PUSH2 0xDB JUMPI DUP1 PUSH4 0x4A1F6125 EQ PUSH2 0x10B JUMPI DUP1 PUSH4 0x4C1249FC EQ PUSH2 0x127 JUMPI JUMPDEST PUSH1 0x0 DUP1 REVERT JUMPDEST PUSH2 0xBD PUSH1 0x4 DUP1 CALLDATASIZE SUB DUP2 ADD SWAP1 PUSH2 0xB8 SWAP2 SWAP1 PUSH2 0x14EE JUMP JUMPDEST PUSH2 0x20F JUMP JUMPDEST STOP JUMPDEST PUSH2 0xD9 PUSH1 0x4 DUP1 CALLDATASIZE SUB DUP2 ADD SWAP1 PUSH2 0xD4 SWAP2 SWAP1 PUSH2 0x157E JUMP JUMPDEST PUSH2 0x5CC JUMP JUMPDEST STOP JUMPDEST PUSH2 0xF5 PUSH1 0x4 DUP1 CALLDATASIZE SUB DUP2 ADD SWAP1 PUSH2 0xF0 SWAP2 SWAP1 PUSH2 0x14AD JUMP JUMPDEST PUSH2 0x941 JUMP JUMPDEST PUSH1 0x40 MLOAD PUSH2 0x102 SWAP2 SWAP1 PUSH2 0x1CE9 JUMP JUMPDEST PUSH1 0x40 MLOAD DUP1 SWAP2 SUB SWAP1 RETURN JUMPDEST PUSH2 0x125 PUSH1 0x4 DUP1 CALLDATASIZE SUB DUP2 ADD SWAP1 PUSH2 0x120 SWAP2 SWAP1 PUSH2 0x1484 JUMP JUMPDEST PUSH2 0x9CA JUMP JUMPDEST STOP JUMPDEST PUSH2 0x12F PUSH2 0xA0E JUMP JUMPDEST PUSH1 0x40 MLOAD PUSH2 0x13C SWAP2 SWAP1 PUSH2 0x1A72 JUMP JUMPDEST PUSH1 0x40 MLOAD DUP1 SWAP2 SUB SWAP1 RETURN JUMPDEST PUSH2 0x15F PUSH1 0x4 DUP1 CALLDATASIZE SUB DUP2 ADD SWAP1 PUSH2 0x15A SWAP2 SWAP1 PUSH2 0x1555 JUMP JUMPDEST PUSH2 0xA34 JUMP JUMPDEST PUSH1 0x40 MLOAD PUSH2 0x175 SWAP11 SWAP10 SWAP9 SWAP8 SWAP7 SWAP6 SWAP5 SWAP4 SWAP3 SWAP2 SWAP1 PUSH2 0x1AE6 JUMP JUMPDEST PUSH1 0x40 MLOAD DUP1 SWAP2 SUB SWAP1 RETURN JUMPDEST PUSH2 0x198 PUSH1 0x4 DUP1 CALLDATASIZE SUB DUP2 ADD SWAP1 PUSH2 0x193 SWAP2 SWAP1 PUSH2 0x1484 JUMP JUMPDEST PUSH2 0xC74 JUMP JUMPDEST STOP JUMPDEST PUSH2 0x1B4 PUSH1 0x4 DUP1 CALLDATASIZE SUB DUP2 ADD SWAP1 PUSH2 0x1AF SWAP2 SWAP1 PUSH2 0x1555 JUMP JUMPDEST PUSH2 0xCB7 JUMP JUMPDEST PUSH1 0x40 MLOAD PUSH2 0x1CC SWAP13 SWAP12 SWAP11 SWAP10 SWAP9 SWAP8 SWAP7 SWAP6 SWAP5 SWAP4 SWAP3 SWAP2 SWAP1 PUSH2 0x1D04 JUMP JUMPDEST PUSH1 0x40 MLOAD DUP1 SWAP2 SUB SWAP1 RETURN JUMPDEST PUSH2 0x1DD PUSH2 0xDCC JUMP JUMPDEST PUSH1 0x40 MLOAD PUSH2 0x1EA SWAP2 SWAP1 PUSH2 0x1A72 JUMP JUMPDEST PUSH1 0x40 MLOAD DUP1 SWAP2 SUB SWAP1 RETURN JUMPDEST PUSH2 0x20D PUSH1 0x4 DUP1 CALLDATASIZE SUB DUP2 ADD SWAP1 PUSH2 0x208 SWAP2 SWAP1 PUSH2 0x1634 JUMP JUMPDEST PUSH2 0xDF0 JUMP JUMPDEST STOP JUMPDEST PUSH1 0x0 PUSH2 0x21A DUP5 PUSH2 0x941 JUMP JUMPDEST SWAP1 POP PUSH1 0x0 DUP2 EQ ISZERO PUSH2 0x260 JUMPI PUSH1 0x40 MLOAD PUSH32 0x8C379A000000000000000000000000000000000000000000000000000000000 DUP2 MSTORE PUSH1 0x4 ADD PUSH2 0x257 SWAP1 PUSH2 0x1C69 JUMP JUMPDEST PUSH1 0x40 MLOAD DUP1 SWAP2 SUB SWAP1 REVERT JUMPDEST PUSH1 0x2 PUSH1 0x0 DUP3 DUP2 MSTORE PUSH1 0x20 ADD SWAP1 DUP2 MSTORE PUSH1 0x20 ADD PUSH1 0x0 KECCAK256 PUSH1 0xB ADD PUSH1 0x0 SWAP1 SLOAD SWAP1 PUSH2 0x100 EXP SWAP1 DIV PUSH1 0xFF AND ISZERO PUSH2 0x2C4 JUMPI PUSH1 0x40 MLOAD PUSH32 0x8C379A000000000000000000000000000000000000000000000000000000000 DUP2 MSTORE PUSH1 0x4 ADD PUSH2 0x2BB SWAP1 PUSH2 0x1BE9 JUMP JUMPDEST PUSH1 0x40 MLOAD DUP1 SWAP2 SUB SWAP1 REVERT JUMPDEST DUP3 PUSH1 0x2 PUSH1 0x0 DUP4 DUP2 MSTORE PUSH1 0x20 ADD SWAP1 DUP2 MSTORE PUSH1 0x20 ADD PUSH1 0x0 KECCAK256 PUSH1 0x6 ADD SLOAD LT ISZERO PUSH2 0x31D JUMPI PUSH1 0x40 MLOAD PUSH32 0x8C379A000000000000000000000000000000000000000000000000000000000 DUP2 MSTORE PUSH1 0x4 ADD PUSH2 0x314 SWAP1 PUSH2 0x1CC9 JUMP JUMPDEST PUSH1 0x40 MLOAD DUP1 SWAP2 SUB SWAP1 REVERT JUMPDEST PUSH1 0x1 PUSH1 0x0 SWAP1 SLOAD SWAP1 PUSH2 0x100 EXP SWAP1 DIV PUSH20 0xFFFFFFFFFFFFFFFFFFFFFFFFFFFFFFFFFFFFFFFF AND PUSH20 0xFFFFFFFFFFFFFFFFFFFFFFFFFFFFFFFFFFFFFFFF AND PUSH1 0x2 PUSH1 0x0 DUP4 DUP2 MSTORE PUSH1 0x20 ADD SWAP1 DUP2 MSTORE PUSH1 0x20 ADD PUSH1 0x0 KECCAK256 PUSH1 0x8 ADD PUSH1 0x0 SWAP1 SLOAD SWAP1 PUSH2 0x100 EXP SWAP1 DIV PUSH20 0xFFFFFFFFFFFFFFFFFFFFFFFFFFFFFFFFFFFFFFFF AND PUSH20 0xFFFFFFFFFFFFFFFFFFFFFFFFFFFFFFFFFFFFFFFF AND EQ PUSH2 0x3E3 JUMPI PUSH1 0x40 MLOAD PUSH32 0x8C379A000000000000000000000000000000000000000000000000000000000 DUP2 MSTORE PUSH1 0x4 ADD PUSH2 0x3DA SWAP1 PUSH2 0x1C89 JUMP JUMPDEST PUSH1 0x40 MLOAD DUP1 SWAP2 SUB SWAP1 REVERT JUMPDEST PUSH1 0x0 PUSH2 0x3ED PUSH2 0x1284 JUMP JUMPDEST SWAP1 POP PUSH1 0x2 PUSH1 0x0 DUP4 DUP2 MSTORE PUSH1 0x20 ADD SWAP1 DUP2 MSTORE PUSH1 0x20 ADD PUSH1 0x0 KECCAK256 PUSH1 0x9 ADD SLOAD DUP4 SLT DUP1 PUSH2 0x428 JUMPI POP PUSH1 0x2 PUSH1 0x0 DUP4 DUP2 MSTORE PUSH1 0x20 ADD SWAP1 DUP2 MSTORE PUSH1 0x20 ADD PUSH1 0x0 KECCAK256 PUSH1 0xA ADD SLOAD DUP4 SGT JUMPDEST DUP1 PUSH2 0x448 JUMPI POP PUSH1 0x2 PUSH1 0x0 DUP4 DUP2 MSTORE PUSH1 0x20 ADD SWAP1 DUP2 MSTORE PUSH1 0x20 ADD PUSH1 0x0 KECCAK256 PUSH1 0x3 ADD SLOAD DUP2 GT JUMPDEST ISZERO PUSH2 0x4B9 JUMPI PUSH1 0x1 PUSH1 0x2 PUSH1 0x0 DUP5 DUP2 MSTORE PUSH1 0x20 ADD SWAP1 DUP2 MSTORE PUSH1 0x20 ADD PUSH1 0x0 KECCAK256 PUSH1 0xB ADD PUSH1 0x0 PUSH2 0x100 EXP DUP2 SLOAD DUP2 PUSH1 0xFF MUL NOT AND SWAP1 DUP4 ISZERO ISZERO MUL OR SWAP1 SSTORE POP DUP2 PUSH32 0x789EB0C3DD244C89EB473EDFCE19F6FA594826F1F0FAF2CF3908F7FD3837BCD PUSH1 0x40 MLOAD PUSH2 0x4AA SWAP1 PUSH2 0x1CA9 JUMP JUMPDEST PUSH1 0x40 MLOAD DUP1 SWAP2 SUB SWAP1 LOG2 POP POP PUSH2 0x5C7 JUMP JUMPDEST DUP4 PUSH1 0x2 PUSH1 0x0 DUP5 DUP2 MSTORE PUSH1 0x20 ADD SWAP1 DUP2 MSTORE PUSH1 0x20 ADD PUSH1 0x0 KECCAK256 PUSH1 0x6 ADD PUSH1 0x0 DUP3 DUP3 SLOAD PUSH2 0x4DF SWAP2 SWAP1 PUSH2 0x1F2E JUMP JUMPDEST SWAP3 POP POP DUP2 SWAP1 SSTORE POP DUP4 PUSH1 0x2 PUSH1 0x0 DUP5 DUP2 MSTORE PUSH1 0x20 ADD SWAP1 DUP2 MSTORE PUSH1 0x20 ADD PUSH1 0x0 KECCAK256 PUSH1 0x7 ADD PUSH1 0x0 DUP3 DUP3 SLOAD PUSH2 0x50C SWAP2 SWAP1 PUSH2 0x1E4D JUMP JUMPDEST SWAP3 POP POP DUP2 SWAP1 SSTORE POP CALLER PUSH1 0x2 PUSH1 0x0 DUP5 DUP2 MSTORE PUSH1 0x20 ADD SWAP1 DUP2 MSTORE PUSH1 0x20 ADD PUSH1 0x0 KECCAK256 PUSH1 0x8 ADD PUSH1 0x0 PUSH2 0x100 EXP DUP2 SLOAD DUP2 PUSH20 0xFFFFFFFFFFFFFFFFFFFFFFFFFFFFFFFFFFFFFFFF MUL NOT AND SWAP1 DUP4 PUSH20 0xFFFFFFFFFFFFFFFFFFFFFFFFFFFFFFFFFFFFFFFF AND MUL OR SWAP1 SSTORE POP DUP2 PUSH32 0x16B85F49BF01212961345D3016C9A531894ACCF62EB7680F2045D79185CC0EC0 PUSH1 0x1 PUSH1 0x0 SWAP1 SLOAD SWAP1 PUSH2 0x100 EXP SWAP1 DIV PUSH20 0xFFFFFFFFFFFFFFFFFFFFFFFFFFFFFFFFFFFFFFFF AND CALLER PUSH1 0x40 MLOAD PUSH2 0x5BC SWAP3 SWAP2 SWAP1 PUSH2 0x1A8D JUMP JUMPDEST PUSH1 0x40 MLOAD DUP1 SWAP2 SUB SWAP1 LOG2 POP POP JUMPDEST POP POP POP JUMP JUMPDEST PUSH1 0x0 DUP1 SLOAD SWAP1 PUSH2 0x100 EXP SWAP1 DIV PUSH20 0xFFFFFFFFFFFFFFFFFFFFFFFFFFFFFFFFFFFFFFFF AND PUSH20 0xFFFFFFFFFFFFFFFFFFFFFFFFFFFFFFFFFFFFFFFF AND CALLER PUSH20 0xFFFFFFFFFFFFFFFFFFFFFFFFFFFFFFFFFFFFFFFF AND EQ PUSH2 0x65A JUMPI PUSH1 0x40 MLOAD PUSH32 0x8C379A000000000000000000000000000000000000000000000000000000000 DUP2 MSTORE PUSH1 0x4 ADD PUSH2 0x651 SWAP1 PUSH2 0x1C29 JUMP JUMPDEST PUSH1 0x40 MLOAD DUP1 SWAP2 SUB SWAP1 REVERT JUMPDEST PUSH1 0x0 PUSH1 0x2 PUSH1 0x0 DUP10 DUP2 MSTORE PUSH1 0x20 ADD SWAP1 DUP2 MSTORE PUSH1 0x20 ADD PUSH1 0x0 KECCAK256 PUSH1 0x0 ADD SLOAD EQ PUSH2 0x6B3 JUMPI PUSH1 0x40 MLOAD PUSH32 0x8C379A000000000000000000000000000000000000000000000000000000000 DUP2 MSTORE PUSH1 0x4 ADD PUSH2 0x6AA SWAP1 PUSH2 0x1C09 JUMP JUMPDEST PUSH1 0x40 MLOAD DUP1 SWAP2 SUB SWAP1 REVERT JUMPDEST PUSH1 0x0 PUSH1 0x3 DUP8 PUSH1 0x40 MLOAD PUSH2 0x6C5 SWAP2 SWAP1 PUSH2 0x1A5B JUMP JUMPDEST SWAP1 DUP2 MSTORE PUSH1 0x20 ADD PUSH1 0x40 MLOAD DUP1 SWAP2 SUB SWAP1 KECCAK256 SLOAD EQ PUSH2 0x714 JUMPI PUSH1 0x40 MLOAD PUSH32 0x8C379A000000000000000000000000000000000000000000000000000000000 DUP2 MSTORE PUSH1 0x4 ADD PUSH2 0x70B SWAP1 PUSH2 0x1B89 JUMP JUMPDEST PUSH1 0x40 MLOAD DUP1 SWAP2 SUB SWAP1 REVERT JUMPDEST DUP4 DUP6 LT PUSH2 0x756 JUMPI PUSH1 0x40 MLOAD PUSH32 0x8C379A000000000000000000000000000000000000000000000000000000000 DUP2 MSTORE PUSH1 0x4 ADD PUSH2 0x74D SWAP1 PUSH2 0x1BA9 JUMP JUMPDEST PUSH1 0x40 MLOAD DUP1 SWAP2 SUB SWAP1 REVERT JUMPDEST PUSH1 0x40 MLOAD DUP1 PUSH2 0x180 ADD PUSH1 0x40 MSTORE DUP1 DUP9 DUP2 MSTORE PUSH1 0x20 ADD DUP8 DUP2 MSTORE PUSH1 0x20 ADD DUP7 DUP2 MSTORE PUSH1 0x20 ADD DUP6 DUP2 MSTORE PUSH1 0x20 ADD DUP5 DUP2 MSTORE PUSH1 0x20 ADD DUP5 DUP2 MSTORE PUSH1 0x20 ADD PUSH1 0x0 DUP2 MSTORE PUSH1 0x20 ADD PUSH1 0x0 DUP2 MSTORE PUSH1 0x20 ADD PUSH1 0x0 DUP1 SLOAD SWAP1 PUSH2 0x100 EXP SWAP1 DIV PUSH20 0xFFFFFFFFFFFFFFFFFFFFFFFFFFFFFFFFFFFFFFFF AND PUSH20 0xFFFFFFFFFFFFFFFFFFFFFFFFFFFFFFFFFFFFFFFF AND DUP2 MSTORE PUSH1 0x20 ADD DUP4 DUP2 MSTORE PUSH1 0x20 ADD DUP3 DUP2 MSTORE PUSH1 0x20 ADD PUSH1 0x0 ISZERO ISZERO DUP2 MSTORE POP PUSH1 0x2 PUSH1 0x0 DUP10 DUP2 MSTORE PUSH1 0x20 ADD SWAP1 DUP2 MSTORE PUSH1 0x20 ADD PUSH1 0x0 KECCAK256 PUSH1 0x0 DUP3 ADD MLOAD DUP2 PUSH1 0x0 ADD SSTORE PUSH1 0x20 DUP3 ADD MLOAD DUP2 PUSH1 0x1 ADD SWAP1 DUP1 MLOAD SWAP1 PUSH1 0x20 ADD SWAP1 PUSH2 0x81C SWAP3 SWAP2 SWAP1 PUSH2 0x133A JUMP JUMPDEST POP PUSH1 0x40 DUP3 ADD MLOAD DUP2 PUSH1 0x2 ADD SSTORE PUSH1 0x60 DUP3 ADD MLOAD DUP2 PUSH1 0x3 ADD SSTORE PUSH1 0x80 DUP3 ADD MLOAD DUP2 PUSH1 0x4 ADD SSTORE PUSH1 0xA0 DUP3 ADD MLOAD DUP2 PUSH1 0x5 ADD SSTORE PUSH1 0xC0 DUP3 ADD MLOAD DUP2 PUSH1 0x6 ADD SSTORE PUSH1 0xE0 DUP3 ADD MLOAD DUP2 PUSH1 0x7 ADD SSTORE PUSH2 0x100 DUP3 ADD MLOAD DUP2 PUSH1 0x8 ADD PUSH1 0x0 PUSH2 0x100 EXP DUP2 SLOAD DUP2 PUSH20 0xFFFFFFFFFFFFFFFFFFFFFFFFFFFFFFFFFFFFFFFF MUL NOT AND SWAP1 DUP4 PUSH20 0xFFFFFFFFFFFFFFFFFFFFFFFFFFFFFFFFFFFFFFFF AND MUL OR SWAP1 SSTORE POP PUSH2 0x120 DUP3 ADD MLOAD DUP2 PUSH1 0x9 ADD SSTORE PUSH2 0x140 DUP3 ADD MLOAD DUP2 PUSH1 0xA ADD SSTORE PUSH2 0x160 DUP3 ADD MLOAD DUP2 PUSH1 0xB ADD PUSH1 0x0 PUSH2 0x100 EXP DUP2 SLOAD DUP2 PUSH1 0xFF MUL NOT AND SWAP1 DUP4 ISZERO ISZERO MUL OR SWAP1 SSTORE POP SWAP1 POP POP DUP7 PUSH1 0x3 DUP8 PUSH1 0x40 MLOAD PUSH2 0x8EC SWAP2 SWAP1 PUSH2 0x1A5B JUMP JUMPDEST SWAP1 DUP2 MSTORE PUSH1 0x20 ADD PUSH1 0x40 MLOAD DUP1 SWAP2 SUB SWAP1 KECCAK256 DUP2 SWAP1 SSTORE POP DUP7 PUSH32 0x444434676A57F70F8479401C50FB4ADD3E31052F88F4B35E155B7759E5968E5 DUP8 DUP6 PUSH1 0x40 MLOAD PUSH2 0x930 SWAP3 SWAP2 SWAP1 PUSH2 0x1AB6 JUMP JUMPDEST PUSH1 0x40 MLOAD DUP1 SWAP2 SUB SWAP1 LOG2 POP POP POP POP POP POP POP JUMP JUMPDEST PUSH1 0x0 DUP1 PUSH1 0x3 DUP4 PUSH1 0x40 MLOAD PUSH2 0x954 SWAP2 SWAP1 PUSH2 0x1A5B JUMP JUMPDEST SWAP1 DUP2 MSTORE PUSH1 0x20 ADD PUSH1 0x40 MLOAD DUP1 SWAP2 SUB SWAP1 KECCAK256 SLOAD EQ ISZERO PUSH2 0x9A4 JUMPI PUSH1 0x40 MLOAD PUSH32 0x8C379A000000000000000000000000000000000000000000000000000000000 DUP2 MSTORE PUSH1 0x4 ADD PUSH2 0x99B SWAP1 PUSH2 0x1C69 JUMP JUMPDEST PUSH1 0x40 MLOAD DUP1 SWAP2 SUB SWAP1 REVERT JUMPDEST PUSH1 0x3 DUP3 PUSH1 0x40 MLOAD PUSH2 0x9B4 SWAP2 SWAP1 PUSH2 0x1A5B JUMP JUMPDEST SWAP1 DUP2 MSTORE PUSH1 0x20 ADD PUSH1 0x40 MLOAD DUP1 SWAP2 SUB SWAP1 KECCAK256 SLOAD SWAP1 POP SWAP2 SWAP1 POP JUMP JUMPDEST DUP1 PUSH1 0x1 PUSH1 0x0 PUSH2 0x100 EXP DUP2 SLOAD DUP2 PUSH20 0xFFFFFFFFFFFFFFFFFFFFFFFFFFFFFFFFFFFFFFFF MUL NOT AND SWAP1 DUP4 PUSH20 0xFFFFFFFFFFFFFFFFFFFFFFFFFFFFFFFFFFFFFFFF AND MUL OR SWAP1 SSTORE POP POP JUMP JUMPDEST PUSH1 0x1 PUSH1 0x0 SWAP1 SLOAD SWAP1 PUSH2 0x100 EXP SWAP1 DIV PUSH20 0xFFFFFFFFFFFFFFFFFFFFFFFFFFFFFFFFFFFFFFFF AND DUP2 JUMP JUMPDEST PUSH1 0x60 PUSH1 0x0 DUP1 PUSH1 0x0 DUP1 PUSH1 0x0 DUP1 PUSH1 0x0 DUP1 PUSH1 0x0 DUP1 PUSH1 0x2 PUSH1 0x0 DUP14 DUP2 MSTORE PUSH1 0x20 ADD SWAP1 DUP2 MSTORE PUSH1 0x20 ADD PUSH1 0x0 KECCAK256 PUSH1 0x0 ADD SLOAD EQ ISZERO PUSH2 0xA9D JUMPI PUSH1 0x40 MLOAD PUSH32 0x8C379A000000000000000000000000000000000000000000000000000000000 DUP2 MSTORE PUSH1 0x4 ADD PUSH2 0xA94 SWAP1 PUSH2 0x1C69 JUMP JUMPDEST PUSH1 0x40 MLOAD DUP1 SWAP2 SUB SWAP1 REVERT JUMPDEST PUSH1 0x0 PUSH1 0x2 PUSH1 0x0 DUP14 DUP2 MSTORE PUSH1 0x20 ADD SWAP1 DUP2 MSTORE PUSH1 0x20 ADD PUSH1 0x0 KECCAK256 PUSH1 0x40 MLOAD DUP1 PUSH2 0x180 ADD PUSH1 0x40 MSTORE SWAP1 DUP2 PUSH1 0x0 DUP3 ADD SLOAD DUP2 MSTORE PUSH1 0x20 ADD PUSH1 0x1 DUP3 ADD DUP1 SLOAD PUSH2 0xAD8 SWAP1 PUSH2 0x1FF6 JUMP JUMPDEST DUP1 PUSH1 0x1F ADD PUSH1 0x20 DUP1 SWAP2 DIV MUL PUSH1 0x20 ADD PUSH1 0x40 MLOAD SWAP1 DUP2 ADD PUSH1 0x40 MSTORE DUP1 SWAP3 SWAP2 SWAP1 DUP2 DUP2 MSTORE PUSH1 0x20 ADD DUP3 DUP1 SLOAD PUSH2 0xB04 SWAP1 PUSH2 0x1FF6 JUMP JUMPDEST DUP1 ISZERO PUSH2 0xB51 JUMPI DUP1 PUSH1 0x1F LT PUSH2 0xB26 JUMPI PUSH2 0x100 DUP1 DUP4 SLOAD DIV MUL DUP4 MSTORE SWAP2 PUSH1 0x20 ADD SWAP2 PUSH2 0xB51 JUMP JUMPDEST DUP3 ADD SWAP2 SWAP1 PUSH1 0x0 MSTORE PUSH1 0x20 PUSH1 0x0 KECCAK256 SWAP1 JUMPDEST DUP2 SLOAD DUP2 MSTORE SWAP1 PUSH1 0x1 ADD SWAP1 PUSH1 0x20 ADD DUP1 DUP4 GT PUSH2 0xB34 JUMPI DUP3 SWAP1 SUB PUSH1 0x1F AND DUP3 ADD SWAP2 JUMPDEST POP POP POP POP POP DUP2 MSTORE PUSH1 0x20 ADD PUSH1 0x2 DUP3 ADD SLOAD DUP2 MSTORE PUSH1 0x20 ADD PUSH1 0x3 DUP3 ADD SLOAD DUP2 MSTORE PUSH1 0x20 ADD PUSH1 0x4 DUP3 ADD SLOAD DUP2 MSTORE PUSH1 0x20 ADD PUSH1 0x5 DUP3 ADD SLOAD DUP2 MSTORE PUSH1 0x20 ADD PUSH1 0x6 DUP3 ADD SLOAD DUP2 MSTORE PUSH1 0x20 ADD PUSH1 0x7 DUP3 ADD SLOAD DUP2 MSTORE PUSH1 0x20 ADD PUSH1 0x8 DUP3 ADD PUSH1 0x0 SWAP1 SLOAD SWAP1 PUSH2 0x100 EXP SWAP1 DIV PUSH20 0xFFFFFFFFFFFFFFFFFFFFFFFFFFFFFFFFFFFFFFFF AND PUSH20 0xFFFFFFFFFFFFFFFFFFFFFFFFFFFFFFFFFFFFFFFF AND PUSH20 0xFFFFFFFFFFFFFFFFFFFFFFFFFFFFFFFFFFFFFFFF AND DUP2 MSTORE PUSH1 0x20 ADD PUSH1 0x9 DUP3 ADD SLOAD DUP2 MSTORE PUSH1 0x20 ADD PUSH1 0xA DUP3 ADD SLOAD DUP2 MSTORE PUSH1 0x20 ADD PUSH1 0xB DUP3 ADD PUSH1 0x0 SWAP1 SLOAD SWAP1 PUSH2 0x100 EXP SWAP1 DIV PUSH1 0xFF AND ISZERO ISZERO ISZERO ISZERO DUP2 MSTORE POP POP SWAP1 POP DUP1 PUSH1 0x20 ADD MLOAD DUP2 PUSH1 0x40 ADD MLOAD DUP3 PUSH1 0x60 ADD MLOAD DUP4 PUSH1 0x80 ADD MLOAD DUP5 PUSH1 0xA0 ADD MLOAD DUP6 PUSH1 0xC0 ADD MLOAD DUP7 PUSH1 0xE0 ADD MLOAD DUP8 PUSH2 0x120 ADD MLOAD DUP9 PUSH2 0x140 ADD MLOAD DUP10 PUSH2 0x160 ADD MLOAD SWAP11 POP SWAP11 POP SWAP11 POP SWAP11 POP SWAP11 POP SWAP11 POP SWAP11 POP SWAP11 POP SWAP11 POP SWAP11 POP POP SWAP2 SWAP4 SWAP6 SWAP8 SWAP10 POP SWAP2 SWAP4 SWAP6 SWAP8 SWAP10 JUMP JUMPDEST DUP1 PUSH1 0x0 DUP1 PUSH2 0x100 EXP DUP2 SLOAD DUP2 PUSH20 0xFFFFFFFFFFFFFFFFFFFFFFFFFFFFFFFFFFFFFFFF MUL NOT AND SWAP1 DUP4 PUSH20 0xFFFFFFFFFFFFFFFFFFFFFFFFFFFFFFFFFFFFFFFF AND MUL OR SWAP1 SSTORE POP POP JUMP JUMPDEST PUSH1 0x2 PUSH1 0x20 MSTORE DUP1 PUSH1 0x0 MSTORE PUSH1 0x40 PUSH1 0x0 KECCAK256 PUSH1 0x0 SWAP2 POP SWAP1 POP DUP1 PUSH1 0x0 ADD SLOAD SWAP1 DUP1 PUSH1 0x1 ADD DUP1 SLOAD PUSH2 0xCE0 SWAP1 PUSH2 0x1FF6 JUMP JUMPDEST DUP1 PUSH1 0x1F ADD PUSH1 0x20 DUP1 SWAP2 DIV MUL PUSH1 0x20 ADD PUSH1 0x40 MLOAD SWAP1 DUP2 ADD PUSH1 0x40 MSTORE DUP1 SWAP3 SWAP2 SWAP1 DUP2 DUP2 MSTORE PUSH1 0x20 ADD DUP3 DUP1 SLOAD PUSH2 0xD0C SWAP1 PUSH2 0x1FF6 JUMP JUMPDEST DUP1 ISZERO PUSH2 0xD59 JUMPI DUP1 PUSH1 0x1F LT PUSH2 0xD2E JUMPI PUSH2 0x100 DUP1 DUP4 SLOAD DIV MUL DUP4 MSTORE SWAP2 PUSH1 0x20 ADD SWAP2 PUSH2 0xD59 JUMP JUMPDEST DUP3 ADD SWAP2 SWAP1 PUSH1 0x0 MSTORE PUSH1 0x20 PUSH1 0x0 KECCAK256 SWAP1 JUMPDEST DUP2 SLOAD DUP2 MSTORE SWAP1 PUSH1 0x1 ADD SWAP1 PUSH1 0x20 ADD DUP1 DUP4 GT PUSH2 0xD3C JUMPI DUP3 SWAP1 SUB PUSH1 0x1F AND DUP3 ADD SWAP2 JUMPDEST POP POP POP POP POP SWAP1 DUP1 PUSH1 0x2 ADD SLOAD SWAP1 DUP1 PUSH1 0x3 ADD SLOAD SWAP1 DUP1 PUSH1 0x4 ADD SLOAD SWAP1 DUP1 PUSH1 0x5 ADD SLOAD SWAP1 DUP1 PUSH1 0x6 ADD SLOAD SWAP1 DUP1 PUSH1 0x7 ADD SLOAD SWAP1 DUP1 PUSH1 0x8 ADD PUSH1 0x0 SWAP1 SLOAD SWAP1 PUSH2 0x100 EXP SWAP1 DIV PUSH20 0xFFFFFFFFFFFFFFFFFFFFFFFFFFFFFFFFFFFFFFFF AND SWAP1 DUP1 PUSH1 0x9 ADD SLOAD SWAP1 DUP1 PUSH1 0xA ADD SLOAD SWAP1 DUP1 PUSH1 0xB ADD PUSH1 0x0 SWAP1 SLOAD SWAP1 PUSH2 0x100 EXP SWAP1 DIV PUSH1 0xFF AND SWAP1 POP DUP13 JUMP JUMPDEST PUSH1 0x0 DUP1 SLOAD SWAP1 PUSH2 0x100 EXP SWAP1 DIV PUSH20 0xFFFFFFFFFFFFFFFFFFFFFFFFFFFFFFFFFFFFFFFF AND DUP2 JUMP JUMPDEST PUSH1 0x1 PUSH1 0x0 SWAP1 SLOAD SWAP1 PUSH2 0x100 EXP SWAP1 DIV PUSH20 0xFFFFFFFFFFFFFFFFFFFFFFFFFFFFFFFFFFFFFFFF AND PUSH20 0xFFFFFFFFFFFFFFFFFFFFFFFFFFFFFFFFFFFFFFFF AND CALLER PUSH20 0xFFFFFFFFFFFFFFFFFFFFFFFFFFFFFFFFFFFFFFFF AND EQ PUSH2 0xE80 JUMPI PUSH1 0x40 MLOAD PUSH32 0x8C379A000000000000000000000000000000000000000000000000000000000 DUP2 MSTORE PUSH1 0x4 ADD PUSH2 0xE77 SWAP1 PUSH2 0x1BC9 JUMP JUMPDEST PUSH1 0x40 MLOAD DUP1 SWAP2 SUB SWAP1 REVERT JUMPDEST PUSH1 0x0 PUSH1 0x2 PUSH1 0x0 DUP6 DUP2 MSTORE PUSH1 0x20 ADD SWAP1 DUP2 MSTORE PUSH1 0x20 ADD PUSH1 0x0 KECCAK256 PUSH1 0x0 ADD SLOAD EQ ISZERO PUSH2 0xEDA JUMPI PUSH1 0x40 MLOAD PUSH32 0x8C379A000000000000000000000000000000000000000000000000000000000 DUP2 MSTORE PUSH1 0x4 ADD PUSH2 0xED1 SWAP1 PUSH2 0x1C69 JUMP JUMPDEST PUSH1 0x40 MLOAD DUP1 SWAP2 SUB SWAP1 REVERT JUMPDEST PUSH1 0x2 PUSH1 0x0 DUP5 DUP2 MSTORE PUSH1 0x20 ADD SWAP1 DUP2 MSTORE PUSH1 0x20 ADD PUSH1 0x0 KECCAK256 PUSH1 0xB ADD PUSH1 0x0 SWAP1 SLOAD SWAP1 PUSH2 0x100 EXP SWAP1 DIV PUSH1 0xFF AND ISZERO PUSH2 0xF3E JUMPI PUSH1 0x40 MLOAD PUSH32 0x8C379A000000000000000000000000000000000000000000000000000000000 DUP2 MSTORE PUSH1 0x4 ADD PUSH2 0xF35 SWAP1 PUSH2 0x1BE9 JUMP JUMPDEST PUSH1 0x40 MLOAD DUP1 SWAP2 SUB SWAP1 REVERT JUMPDEST DUP2 PUSH1 0x2 PUSH1 0x0 DUP6 DUP2 MSTORE PUSH1 0x20 ADD SWAP1 DUP2 MSTORE PUSH1 0x20 ADD PUSH1 0x0 KECCAK256 PUSH1 0x5 ADD SLOAD LT ISZERO PUSH2 0xF97 JUMPI PUSH1 0x40 MLOAD PUSH32 0x8C379A000000000000000000000000000000000000000000000000000000000 DUP2 MSTORE PUSH1 0x4 ADD PUSH2 0xF8E SWAP1 PUSH2 0x1CC9 JUMP JUMPDEST PUSH1 0x40 MLOAD DUP1 SWAP2 SUB SWAP1 REVERT JUMPDEST PUSH1 0x0 DUP1 SLOAD SWAP1 PUSH2 0x100 EXP SWAP1 DIV PUSH20 0xFFFFFFFFFFFFFFFFFFFFFFFFFFFFFFFFFFFFFFFF AND PUSH20 0xFFFFFFFFFFFFFFFFFFFFFFFFFFFFFFFFFFFFFFFF AND PUSH1 0x2 PUSH1 0x0 DUP6 DUP2 MSTORE PUSH1 0x20 ADD SWAP1 DUP2 MSTORE PUSH1 0x20 ADD PUSH1 0x0 KECCAK256 PUSH1 0x8 ADD PUSH1 0x0 SWAP1 SLOAD SWAP1 PUSH2 0x100 EXP SWAP1 DIV PUSH20 0xFFFFFFFFFFFFFFFFFFFFFFFFFFFFFFFFFFFFFFFF AND PUSH20 0xFFFFFFFFFFFFFFFFFFFFFFFFFFFFFFFFFFFFFFFF AND EQ PUSH2 0x105B JUMPI PUSH1 0x40 MLOAD PUSH32 0x8C379A000000000000000000000000000000000000000000000000000000000 DUP2 MSTORE PUSH1 0x4 ADD PUSH2 0x1052 SWAP1 PUSH2 0x1C49 JUMP JUMPDEST PUSH1 0x40 MLOAD DUP1 SWAP2 SUB SWAP1 REVERT JUMPDEST PUSH1 0x0 PUSH2 0x1065 PUSH2 0x1284 JUMP JUMPDEST SWAP1 POP PUSH1 0x2 PUSH1 0x0 DUP6 DUP2 MSTORE PUSH1 0x20 ADD SWAP1 DUP2 MSTORE PUSH1 0x20 ADD PUSH1 0x0 KECCAK256 PUSH1 0x9 ADD SLOAD DUP3 SLT DUP1 PUSH2 0x10A0 JUMPI POP PUSH1 0x2 PUSH1 0x0 DUP6 DUP2 MSTORE PUSH1 0x20 ADD SWAP1 DUP2 MSTORE PUSH1 0x20 ADD PUSH1 0x0 KECCAK256 PUSH1 0xA ADD SLOAD DUP3 SGT JUMPDEST DUP1 PUSH2 0x10C0 JUMPI POP PUSH1 0x2 PUSH1 0x0 DUP6 DUP2 MSTORE PUSH1 0x20 ADD SWAP1 DUP2 MSTORE PUSH1 0x20 ADD PUSH1 0x0 KECCAK256 PUSH1 0x3 ADD SLOAD DUP2 GT JUMPDEST ISZERO PUSH2 0x1130 JUMPI PUSH1 0x1 PUSH1 0x2 PUSH1 0x0 DUP7 DUP2 MSTORE PUSH1 0x20 ADD SWAP1 DUP2 MSTORE PUSH1 0x20 ADD PUSH1 0x0 KECCAK256 PUSH1 0xB ADD PUSH1 0x0 PUSH2 0x100 EXP DUP2 SLOAD DUP2 PUSH1 0xFF MUL NOT AND SWAP1 DUP4 ISZERO ISZERO MUL OR SWAP1 SSTORE POP DUP4 PUSH32 0x789EB0C3DD244C89EB473EDFCE19F6FA594826F1F0FAF2CF3908F7FD3837BCD PUSH1 0x40 MLOAD PUSH2 0x1122 SWAP1 PUSH2 0x1CA9 JUMP JUMPDEST PUSH1 0x40 MLOAD DUP1 SWAP2 SUB SWAP1 LOG2 POP PUSH2 0x127F JUMP JUMPDEST DUP3 PUSH1 0x2 PUSH1 0x0 DUP7 DUP2 MSTORE PUSH1 0x20 ADD SWAP1 DUP2 MSTORE PUSH1 0x20 ADD PUSH1 0x0 KECCAK256 PUSH1 0x5 ADD PUSH1 0x0 DUP3 DUP3 SLOAD PUSH2 0x1156 SWAP2 SWAP1 PUSH2 0x1F2E JUMP JUMPDEST SWAP3 POP POP DUP2 SWAP1 SSTORE POP DUP3 PUSH1 0x2 PUSH1 0x0 DUP7 DUP2 MSTORE PUSH1 0x20 ADD SWAP1 DUP2 MSTORE PUSH1 0x20 ADD PUSH1 0x0 KECCAK256 PUSH1 0x6 ADD PUSH1 0x0 DUP3 DUP3 SLOAD PUSH2 0x1183 SWAP2 SWAP1 PUSH2 0x1E4D JUMP JUMPDEST SWAP3 POP POP DUP2 SWAP1 SSTORE POP PUSH1 0x1 PUSH1 0x0 SWAP1 SLOAD SWAP1 PUSH2 0x100 EXP SWAP1 DIV PUSH20 0xFFFFFFFFFFFFFFFFFFFFFFFFFFFFFFFFFFFFFFFF AND PUSH1 0x2 PUSH1 0x0 DUP7 DUP2 MSTORE PUSH1 0x20 ADD SWAP1 DUP2 MSTORE PUSH1 0x20 ADD PUSH1 0x0 KECCAK256 PUSH1 0x8 ADD PUSH1 0x0 PUSH2 0x100 EXP DUP2 SLOAD DUP2 PUSH20 0xFFFFFFFFFFFFFFFFFFFFFFFFFFFFFFFFFFFFFFFF MUL NOT AND SWAP1 DUP4 PUSH20 0xFFFFFFFFFFFFFFFFFFFFFFFFFFFFFFFFFFFFFFFF AND MUL OR SWAP1 SSTORE POP DUP4 PUSH32 0x16B85F49BF01212961345D3016C9A531894ACCF62EB7680F2045D79185CC0EC0 PUSH1 0x0 DUP1 SLOAD SWAP1 PUSH2 0x100 EXP SWAP1 DIV PUSH20 0xFFFFFFFFFFFFFFFFFFFFFFFFFFFFFFFFFFFFFFFF AND PUSH1 0x1 PUSH1 0x0 SWAP1 SLOAD SWAP1 PUSH2 0x100 EXP SWAP1 DIV PUSH20 0xFFFFFFFFFFFFFFFFFFFFFFFFFFFFFFFFFFFFFFFF AND PUSH1 0x40 MLOAD PUSH2 0x1275 SWAP3 SWAP2 SWAP1 PUSH2 0x1A8D JUMP JUMPDEST PUSH1 0x40 MLOAD DUP1 SWAP2 SUB SWAP1 LOG2 POP JUMPDEST POP POP POP JUMP JUMPDEST PUSH1 0x0 DUP1 TIMESTAMP SWAP1 POP PUSH1 0x0 PUSH4 0x1E1853E DUP3 PUSH2 0x129C SWAP2 SWAP1 PUSH2 0x1EA3 JUMP JUMPDEST PUSH2 0x7B2 PUSH2 0x12A9 SWAP2 SWAP1 PUSH2 0x1E4D JUMP JUMPDEST SWAP1 POP PUSH1 0x0 PUSH1 0x1 PUSH1 0xC PUSH3 0x28206F DUP6 PUSH2 0x12C0 SWAP2 SWAP1 PUSH2 0x1EA3 JUMP JUMPDEST PUSH2 0x12CA SWAP2 SWAP1 PUSH2 0x2028 JUMP JUMPDEST PUSH2 0x12D4 SWAP2 SWAP1 PUSH2 0x1E4D JUMP JUMPDEST SWAP1 POP PUSH1 0x0 PUSH1 0x1 PUSH1 0x1F PUSH3 0x15180 DUP7 PUSH2 0x12EB SWAP2 SWAP1 PUSH2 0x1EA3 JUMP JUMPDEST PUSH2 0x12F5 SWAP2 SWAP1 PUSH2 0x2028 JUMP JUMPDEST PUSH2 0x12FF SWAP2 SWAP1 PUSH2 0x1E4D JUMP JUMPDEST SWAP1 POP DUP1 PUSH1 0x64 DUP4 PUSH2 0x130F SWAP2 SWAP1 PUSH2 0x1ED4 JUMP JUMPDEST PUSH2 0x2710 DUP6 PUSH2 0x131D SWAP2 SWAP1 PUSH2 0x1ED4 JUMP JUMPDEST PUSH2 0x1327 SWAP2 SWAP1 PUSH2 0x1E4D JUMP JUMPDEST PUSH2 0x1331 SWAP2 SWAP1 PUSH2 0x1E4D JUMP JUMPDEST SWAP5 POP POP POP POP POP SWAP1 JUMP JUMPDEST DUP3 DUP1 SLOAD PUSH2 0x1346 SWAP1 PUSH2 0x1FF6 JUMP JUMPDEST SWAP1 PUSH1 0x0 MSTORE PUSH1 0x20 PUSH1 0x0 KECCAK256 SWAP1 PUSH1 0x1F ADD PUSH1 0x20 SWAP1 DIV DUP2 ADD SWAP3 DUP3 PUSH2 0x1368 JUMPI PUSH1 0x0 DUP6 SSTORE PUSH2 0x13AF JUMP JUMPDEST DUP3 PUSH1 0x1F LT PUSH2 0x1381 JUMPI DUP1 MLOAD PUSH1 0xFF NOT AND DUP4 DUP1 ADD OR DUP6 SSTORE PUSH2 0x13AF JUMP JUMPDEST DUP3 DUP1 ADD PUSH1 0x1 ADD DUP6 SSTORE DUP3 ISZERO PUSH2 0x13AF JUMPI SWAP2 DUP3 ADD JUMPDEST DUP3 DUP2 GT ISZERO PUSH2 0x13AE JUMPI DUP3 MLOAD DUP3 SSTORE SWAP2 PUSH1 0x20 ADD SWAP2 SWAP1 PUSH1 0x1 ADD SWAP1 PUSH2 0x1393 JUMP JUMPDEST JUMPDEST POP SWAP1 POP PUSH2 0x13BC SWAP2 SWAP1 PUSH2 0x13C0 JUMP JUMPDEST POP SWAP1 JUMP JUMPDEST JUMPDEST DUP1 DUP3 GT ISZERO PUSH2 0x13D9 JUMPI PUSH1 0x0 DUP2 PUSH1 0x0 SWAP1 SSTORE POP PUSH1 0x1 ADD PUSH2 0x13C1 JUMP JUMPDEST POP SWAP1 JUMP JUMPDEST PUSH1 0x0 PUSH2 0x13F0 PUSH2 0x13EB DUP5 PUSH2 0x1DF6 JUMP JUMPDEST PUSH2 0x1DC5 JUMP JUMPDEST SWAP1 POP DUP3 DUP2 MSTORE PUSH1 0x20 DUP2 ADD DUP5 DUP5 DUP5 ADD GT ISZERO PUSH2 0x1408 JUMPI PUSH1 0x0 DUP1 REVERT JUMPDEST PUSH2 0x1413 DUP5 DUP3 DUP6 PUSH2 0x1FB4 JUMP JUMPDEST POP SWAP4 SWAP3 POP POP POP JUMP JUMPDEST PUSH1 0x0 DUP2 CALLDATALOAD SWAP1 POP PUSH2 0x142A DUP2 PUSH2 0x2126 JUMP JUMPDEST SWAP3 SWAP2 POP POP JUMP JUMPDEST PUSH1 0x0 DUP2 CALLDATALOAD SWAP1 POP PUSH2 0x143F DUP2 PUSH2 0x213D JUMP JUMPDEST SWAP3 SWAP2 POP POP JUMP JUMPDEST PUSH1 0x0 DUP3 PUSH1 0x1F DUP4 ADD SLT PUSH2 0x1456 JUMPI PUSH1 0x0 DUP1 REVERT JUMPDEST DUP2 CALLDATALOAD PUSH2 0x1466 DUP5 DUP3 PUSH1 0x20 DUP7 ADD PUSH2 0x13DD JUMP JUMPDEST SWAP2 POP POP SWAP3 SWAP2 POP POP JUMP JUMPDEST PUSH1 0x0 DUP2 CALLDATALOAD SWAP1 POP PUSH2 0x147E DUP2 PUSH2 0x2154 JUMP JUMPDEST SWAP3 SWAP2 POP POP JUMP JUMPDEST PUSH1 0x0 PUSH1 0x20 DUP3 DUP5 SUB SLT ISZERO PUSH2 0x1496 JUMPI PUSH1 0x0 DUP1 REVERT JUMPDEST PUSH1 0x0 PUSH2 0x14A4 DUP5 DUP3 DUP6 ADD PUSH2 0x141B JUMP JUMPDEST SWAP2 POP POP SWAP3 SWAP2 POP POP JUMP JUMPDEST PUSH1 0x0 PUSH1 0x20 DUP3 DUP5 SUB SLT ISZERO PUSH2 0x14BF JUMPI PUSH1 0x0 DUP1 REVERT JUMPDEST PUSH1 0x0 DUP3 ADD CALLDATALOAD PUSH8 0xFFFFFFFFFFFFFFFF DUP2 GT ISZERO PUSH2 0x14D9 JUMPI PUSH1 0x0 DUP1 REVERT JUMPDEST PUSH2 0x14E5 DUP5 DUP3 DUP6 ADD PUSH2 0x1445 JUMP JUMPDEST SWAP2 POP POP SWAP3 SWAP2 POP POP JUMP JUMPDEST PUSH1 0x0 DUP1 PUSH1 0x0 PUSH1 0x60 DUP5 DUP7 SUB SLT ISZERO PUSH2 0x1503 JUMPI PUSH1 0x0 DUP1 REVERT JUMPDEST PUSH1 0x0 DUP5 ADD CALLDATALOAD PUSH8 0xFFFFFFFFFFFFFFFF DUP2 GT ISZERO PUSH2 0x151D JUMPI PUSH1 0x0 DUP1 REVERT JUMPDEST PUSH2 0x1529 DUP7 DUP3 DUP8 ADD PUSH2 0x1445 JUMP JUMPDEST SWAP4 POP POP PUSH1 0x20 PUSH2 0x153A DUP7 DUP3 DUP8 ADD PUSH2 0x146F JUMP JUMPDEST SWAP3 POP POP PUSH1 0x40 PUSH2 0x154B DUP7 DUP3 DUP8 ADD PUSH2 0x1430 JUMP JUMPDEST SWAP2 POP POP SWAP3 POP SWAP3 POP SWAP3 JUMP JUMPDEST PUSH1 0x0 PUSH1 0x20 DUP3 DUP5 SUB SLT ISZERO PUSH2 0x1567 JUMPI PUSH1 0x0 DUP1 REVERT JUMPDEST PUSH1 0x0 PUSH2 0x1575 DUP5 DUP3 DUP6 ADD PUSH2 0x146F JUMP JUMPDEST SWAP2 POP POP SWAP3 SWAP2 POP POP JUMP JUMPDEST PUSH1 0x0 DUP1 PUSH1 0x0 DUP1 PUSH1 0x0 DUP1 PUSH1 0x0 PUSH1 0xE0 DUP9 DUP11 SUB SLT ISZERO PUSH2 0x1599 JUMPI PUSH1 0x0 DUP1 REVERT JUMPDEST PUSH1 0x0 PUSH2 0x15A7 DUP11 DUP3 DUP12 ADD PUSH2 0x146F JUMP JUMPDEST SWAP8 POP POP PUSH1 0x20 DUP9 ADD CALLDATALOAD PUSH8 0xFFFFFFFFFFFFFFFF DUP2 GT ISZERO PUSH2 0x15C4 JUMPI PUSH1 0x0 DUP1 REVERT JUMPDEST PUSH2 0x15D0 DUP11 DUP3 DUP12 ADD PUSH2 0x1445 JUMP JUMPDEST SWAP7 POP POP PUSH1 0x40 PUSH2 0x15E1 DUP11 DUP3 DUP12 ADD PUSH2 0x146F JUMP JUMPDEST SWAP6 POP POP PUSH1 0x60 PUSH2 0x15F2 DUP11 DUP3 DUP12 ADD PUSH2 0x146F JUMP JUMPDEST SWAP5 POP POP PUSH1 0x80 PUSH2 0x1603 DUP11 DUP3 DUP12 ADD PUSH2 0x146F JUMP JUMPDEST SWAP4 POP POP PUSH1 0xA0 PUSH2 0x1614 DUP11 DUP3 DUP12 ADD PUSH2 0x1430 JUMP JUMPDEST SWAP3 POP POP PUSH1 0xC0 PUSH2 0x1625 DUP11 DUP3 DUP12 ADD PUSH2 0x1430 JUMP JUMPDEST SWAP2 POP POP SWAP3 SWAP6 SWAP9 SWAP2 SWAP5 SWAP8 POP SWAP3 SWAP6 POP JUMP JUMPDEST PUSH1 0x0 DUP1 PUSH1 0x0 PUSH1 0x60 DUP5 DUP7 SUB SLT ISZERO PUSH2 0x1649 JUMPI PUSH1 0x0 DUP1 REVERT JUMPDEST PUSH1 0x0 PUSH2 0x1657 DUP7 DUP3 DUP8 ADD PUSH2 0x146F JUMP JUMPDEST SWAP4 POP POP PUSH1 0x20 PUSH2 0x1668 DUP7 DUP3 DUP8 ADD PUSH2 0x146F JUMP JUMPDEST SWAP3 POP POP PUSH1 0x40 PUSH2 0x1679 DUP7 DUP3 DUP8 ADD PUSH2 0x1430 JUMP JUMPDEST SWAP2 POP POP SWAP3 POP SWAP3 POP SWAP3 JUMP JUMPDEST PUSH2 0x168C DUP2 PUSH2 0x1F62 JUMP JUMPDEST DUP3 MSTORE POP POP JUMP JUMPDEST PUSH2 0x169B DUP2 PUSH2 0x1F74 JUMP JUMPDEST DUP3 MSTORE POP POP JUMP JUMPDEST PUSH2 0x16AA DUP2 PUSH2 0x1F80 JUMP JUMPDEST DUP3 MSTORE POP POP JUMP JUMPDEST PUSH1 0x0 PUSH2 0x16BB DUP3 PUSH2 0x1E26 JUMP JUMPDEST PUSH2 0x16C5 DUP2 DUP6 PUSH2 0x1E31 JUMP JUMPDEST SWAP4 POP PUSH2 0x16D5 DUP2 DUP6 PUSH1 0x20 DUP7 ADD PUSH2 0x1FC3 JUMP JUMPDEST PUSH2 0x16DE DUP2 PUSH2 0x2115 JUMP JUMPDEST DUP5 ADD SWAP2 POP POP SWAP3 SWAP2 POP POP JUMP JUMPDEST PUSH1 0x0 PUSH2 0x16F4 DUP3 PUSH2 0x1E26 JUMP JUMPDEST PUSH2 0x16FE DUP2 DUP6 PUSH2 0x1E42 JUMP JUMPDEST SWAP4 POP PUSH2 0x170E DUP2 DUP6 PUSH1 0x20 DUP7 ADD PUSH2 0x1FC3 JUMP JUMPDEST DUP1 DUP5 ADD SWAP2 POP POP SWAP3 SWAP2 POP POP JUMP JUMPDEST PUSH1 0x0 PUSH2 0x1727 PUSH1 0x18 DUP4 PUSH2 0x1E31 JUMP JUMPDEST SWAP2 POP PUSH32 0x4974656D206E616D6520616C7265616479206578697374730000000000000000 PUSH1 0x0 DUP4 ADD MSTORE PUSH1 0x20 DUP3 ADD SWAP1 POP SWAP2 SWAP1 POP JUMP JUMPDEST PUSH1 0x0 PUSH2 0x1767 PUSH1 0x2D DUP4 PUSH2 0x1E31 JUMP JUMPDEST SWAP2 POP PUSH32 0x4D616E75666163747572696E672064617465206D757374206265206265666F72 PUSH1 0x0 DUP4 ADD MSTORE PUSH32 0x6520657870697279206461746500000000000000000000000000000000000000 PUSH1 0x20 DUP4 ADD MSTORE PUSH1 0x40 DUP3 ADD SWAP1 POP SWAP2 SWAP1 POP JUMP JUMPDEST PUSH1 0x0 PUSH2 0x17CD PUSH1 0x24 DUP4 PUSH2 0x1E31 JUMP JUMPDEST SWAP2 POP PUSH32 0x4F6E6C792072657461696C65722063616E2063616C6C20746869732066756E63 PUSH1 0x0 DUP4 ADD MSTORE PUSH32 0x74696F6E00000000000000000000000000000000000000000000000000000000 PUSH1 0x20 DUP4 ADD MSTORE PUSH1 0x40 DUP3 ADD SWAP1 POP SWAP2 SWAP1 POP JUMP JUMPDEST PUSH1 0x0 PUSH2 0x1833 PUSH1 0xF DUP4 PUSH2 0x1E31 JUMP JUMPDEST SWAP2 POP PUSH32 0x4974656D20697320626C6F636B65640000000000000000000000000000000000 PUSH1 0x0 DUP4 ADD MSTORE PUSH1 0x20 DUP3 ADD SWAP1 POP SWAP2 SWAP1 POP JUMP JUMPDEST PUSH1 0x0 PUSH2 0x1873 PUSH1 0x16 DUP4 PUSH2 0x1E31 JUMP JUMPDEST SWAP2 POP PUSH32 0x4974656D20494420616C72656164792065786973747300000000000000000000 PUSH1 0x0 DUP4 ADD MSTORE PUSH1 0x20 DUP3 ADD SWAP1 POP SWAP2 SWAP1 POP JUMP JUMPDEST PUSH1 0x0 PUSH2 0x18B3 PUSH1 0x27 DUP4 PUSH2 0x1E31 JUMP JUMPDEST SWAP2 POP PUSH32 0x4F6E6C79206469737472696275746F722063616E2063616C6C20746869732066 PUSH1 0x0 DUP4 ADD MSTORE PUSH32 0x756E6374696F6E00000000000000000000000000000000000000000000000000 PUSH1 0x20 DUP4 ADD MSTORE PUSH1 0x40 DUP3 ADD SWAP1 POP SWAP2 SWAP1 POP JUMP JUMPDEST PUSH1 0x0 PUSH2 0x1919 PUSH1 0x19 DUP4 PUSH2 0x1E31 JUMP JUMPDEST SWAP2 POP PUSH32 0x4974656D206E6F742077697468206469737472696275746F7200000000000000 PUSH1 0x0 DUP4 ADD MSTORE PUSH1 0x20 DUP3 ADD SWAP1 POP SWAP2 SWAP1 POP JUMP JUMPDEST PUSH1 0x0 PUSH2 0x1959 PUSH1 0x13 DUP4 PUSH2 0x1E31 JUMP JUMPDEST SWAP2 POP PUSH32 0x4974656D20646F6573206E6F7420657869737400000000000000000000000000 PUSH1 0x0 DUP4 ADD MSTORE PUSH1 0x20 DUP3 ADD SWAP1 POP SWAP2 SWAP1 POP JUMP JUMPDEST PUSH1 0x0 PUSH2 0x1999 PUSH1 0x16 DUP4 PUSH2 0x1E31 JUMP JUMPDEST SWAP2 POP PUSH32 0x4974656D206E6F7420776974682072657461696C657200000000000000000000 PUSH1 0x0 DUP4 ADD MSTORE PUSH1 0x20 DUP3 ADD SWAP1 POP SWAP2 SWAP1 POP JUMP JUMPDEST PUSH1 0x0 PUSH2 0x19D9 PUSH1 0x1B DUP4 PUSH2 0x1E31 JUMP JUMPDEST SWAP2 POP PUSH32 0x54656D7065726174757265206F72206578706972792069737375650000000000 PUSH1 0x0 DUP4 ADD MSTORE PUSH1 0x20 DUP3 ADD SWAP1 POP SWAP2 SWAP1 POP JUMP JUMPDEST PUSH1 0x0 PUSH2 0x1A19 PUSH1 0x15 DUP4 PUSH2 0x1E31 JUMP JUMPDEST SWAP2 POP PUSH32 0x496E73756666696369656E74207175616E746974790000000000000000000000 PUSH1 0x0 DUP4 ADD MSTORE PUSH1 0x20 DUP3 ADD SWAP1 POP SWAP2 SWAP1 POP JUMP JUMPDEST PUSH2 0x1A55 DUP2 PUSH2 0x1FAA JUMP JUMPDEST DUP3 MSTORE POP POP JUMP JUMPDEST PUSH1 0x0 PUSH2 0x1A67 DUP3 DUP5 PUSH2 0x16E9 JUMP JUMPDEST SWAP2 POP DUP2 SWAP1 POP SWAP3 SWAP2 POP POP JUMP JUMPDEST PUSH1 0x0 PUSH1 0x20 DUP3 ADD SWAP1 POP PUSH2 0x1A87 PUSH1 0x0 DUP4 ADD DUP5 PUSH2 0x1683 JUMP JUMPDEST SWAP3 SWAP2 POP POP JUMP JUMPDEST PUSH1 0x0 PUSH1 0x40 DUP3 ADD SWAP1 POP PUSH2 0x1AA2 PUSH1 0x0 DUP4 ADD DUP6 PUSH2 0x1683 JUMP JUMPDEST PUSH2 0x1AAF PUSH1 0x20 DUP4 ADD DUP5 PUSH2 0x1683 JUMP JUMPDEST SWAP4 SWAP3 POP POP POP JUMP JUMPDEST PUSH1 0x0 PUSH1 0x40 DUP3 ADD SWAP1 POP DUP2 DUP2 SUB PUSH1 0x0 DUP4 ADD MSTORE PUSH2 0x1AD0 DUP2 DUP6 PUSH2 0x16B0 JUMP JUMPDEST SWAP1 POP PUSH2 0x1ADF PUSH1 0x20 DUP4 ADD DUP5 PUSH2 0x1A4C JUMP JUMPDEST SWAP4 SWAP3 POP POP POP JUMP JUMPDEST PUSH1 0x0 PUSH2 0x140 DUP3 ADD SWAP1 POP DUP2 DUP2 SUB PUSH1 0x0 DUP4 ADD MSTORE PUSH2 0x1B01 DUP2 DUP14 PUSH2 0x16B0 JUMP JUMPDEST SWAP1 POP PUSH2 0x1B10 PUSH1 0x20 DUP4 ADD DUP13 PUSH2 0x1A4C JUMP JUMPDEST PUSH2 0x1B1D PUSH1 0x40 DUP4 ADD DUP12 PUSH2 0x1A4C JUMP JUMPDEST PUSH2 0x1B2A PUSH1 0x60 DUP4 ADD DUP11 PUSH2 0x1A4C JUMP JUMPDEST PUSH2 0x1B37 PUSH1 0x80 DUP4 ADD DUP10 PUSH2 0x1A4C JUMP JUMPDEST PUSH2 0x1B44 PUSH1 0xA0 DUP4 ADD DUP9 PUSH2 0x1A4C JUMP JUMPDEST PUSH2 0x1B51 PUSH1 0xC0 DUP4 ADD DUP8 PUSH2 0x1A4C JUMP JUMPDEST PUSH2 0x1B5E PUSH1 0xE0 DUP4 ADD DUP7 PUSH2 0x16A1 JUMP JUMPDEST PUSH2 0x1B6C PUSH2 0x100 DUP4 ADD DUP6 PUSH2 0x16A1 JUMP JUMPDEST PUSH2 0x1B7A PUSH2 0x120 DUP4 ADD DUP5 PUSH2 0x1692 JUMP JUMPDEST SWAP12 SWAP11 POP POP POP POP POP POP POP POP POP POP POP JUMP JUMPDEST PUSH1 0x0 PUSH1 0x20 DUP3 ADD SWAP1 POP DUP2 DUP2 SUB PUSH1 0x0 DUP4 ADD MSTORE PUSH2 0x1BA2 DUP2 PUSH2 0x171A JUMP JUMPDEST SWAP1 POP SWAP2 SWAP1 POP JUMP JUMPDEST PUSH1 0x0 PUSH1 0x20 DUP3 ADD SWAP1 POP DUP2 DUP2 SUB PUSH1 0x0 DUP4 ADD MSTORE PUSH2 0x1BC2 DUP2 PUSH2 0x175A JUMP JUMPDEST SWAP1 POP SWAP2 SWAP1 POP JUMP JUMPDEST PUSH1 0x0 PUSH1 0x20 DUP3 ADD SWAP1 POP DUP2 DUP2 SUB PUSH1 0x0 DUP4 ADD MSTORE PUSH2 0x1BE2 DUP2 PUSH2 0x17C0 JUMP JUMPDEST SWAP1 POP SWAP2 SWAP1 POP JUMP JUMPDEST PUSH1 0x0 PUSH1 0x20 DUP3 ADD SWAP1 POP DUP2 DUP2 SUB PUSH1 0x0 DUP4 ADD MSTORE PUSH2 0x1C02 DUP2 PUSH2 0x1826 JUMP JUMPDEST SWAP1 POP SWAP2 SWAP1 POP JUMP JUMPDEST PUSH1 0x0 PUSH1 0x20 DUP3 ADD SWAP1 POP DUP2 DUP2 SUB PUSH1 0x0 DUP4 ADD MSTORE PUSH2 0x1C22 DUP2 PUSH2 0x1866 JUMP JUMPDEST SWAP1 POP SWAP2 SWAP1 POP JUMP JUMPDEST PUSH1 0x0 PUSH1 0x20 DUP3 ADD SWAP1 POP DUP2 DUP2 SUB PUSH1 0x0 DUP4 ADD MSTORE PUSH2 0x1C42 DUP2 PUSH2 0x18A6 JUMP JUMPDEST SWAP1 POP SWAP2 SWAP1 POP JUMP JUMPDEST PUSH1 0x0 PUSH1 0x20 DUP3 ADD SWAP1 POP DUP2 DUP2 SUB PUSH1 0x0 DUP4 ADD MSTORE PUSH2 0x1C62 DUP2 PUSH2 0x190C JUMP JUMPDEST SWAP1 POP SWAP2 SWAP1 POP JUMP JUMPDEST PUSH1 0x0 PUSH1 0x20 DUP3 ADD SWAP1 POP DUP2 DUP2 SUB PUSH1 0x0 DUP4 ADD MSTORE PUSH2 0x1C82 DUP2 PUSH2 0x194C JUMP JUMPDEST SWAP1 POP SWAP2 SWAP1 POP JUMP JUMPDEST PUSH1 0x0 PUSH1 0x20 DUP3 ADD SWAP1 POP DUP2 DUP2 SUB PUSH1 0x0 DUP4 ADD MSTORE PUSH2 0x1CA2 DUP2 PUSH2 0x198C JUMP JUMPDEST SWAP1 POP SWAP2 SWAP1 POP JUMP JUMPDEST PUSH1 0x0 PUSH1 0x20 DUP3 ADD SWAP1 POP DUP2 DUP2 SUB PUSH1 0x0 DUP4 ADD MSTORE PUSH2 0x1CC2 DUP2 PUSH2 0x19CC JUMP JUMPDEST SWAP1 POP SWAP2 SWAP1 POP JUMP JUMPDEST PUSH1 0x0 PUSH1 0x20 DUP3 ADD SWAP1 POP DUP2 DUP2 SUB PUSH1 0x0 DUP4 ADD MSTORE PUSH2 0x1CE2 DUP2 PUSH2 0x1A0C JUMP JUMPDEST SWAP1 POP SWAP2 SWAP1 POP JUMP JUMPDEST PUSH1 0x0 PUSH1 0x20 DUP3 ADD SWAP1 POP PUSH2 0x1CFE PUSH1 0x0 DUP4 ADD DUP5 PUSH2 0x1A4C JUMP JUMPDEST SWAP3 SWAP2 POP POP JUMP JUMPDEST PUSH1 0x0 PUSH2 0x180 DUP3 ADD SWAP1 POP PUSH2 0x1D1A PUSH1 0x0 DUP4 ADD DUP16 PUSH2 0x1A4C JUMP JUMPDEST DUP2 DUP2 SUB PUSH1 0x20 DUP4 ADD MSTORE PUSH2 0x1D2C DUP2 DUP15 PUSH2 0x16B0 JUMP JUMPDEST SWAP1 POP PUSH2 0x1D3B PUSH1 0x40 DUP4 ADD DUP14 PUSH2 0x1A4C JUMP JUMPDEST PUSH2 0x1D48 PUSH1 0x60 DUP4 ADD DUP13 PUSH2 0x1A4C JUMP JUMPDEST PUSH2 0x1D55 PUSH1 0x80 DUP4 ADD DUP12 PUSH2 0x1A4C JUMP JUMPDEST PUSH2 0x1D62 PUSH1 0xA0 DUP4 ADD DUP11 PUSH2 0x1A4C JUMP JUMPDEST PUSH2 0x1D6F PUSH1 0xC0 DUP4 ADD DUP10 PUSH2 0x1A4C JUMP JUMPDEST PUSH2 0x1D7C PUSH1 0xE0 DUP4 ADD DUP9 PUSH2 0x1A4C JUMP JUMPDEST PUSH2 0x1D8A PUSH2 0x100 DUP4 ADD DUP8 PUSH2 0x1683 JUMP JUMPDEST PUSH2 0x1D98 PUSH2 0x120 DUP4 ADD DUP7 PUSH2 0x16A1 JUMP JUMPDEST PUSH2 0x1DA6 PUSH2 0x140 DUP4 ADD DUP6 PUSH2 0x16A1 JUMP JUMPDEST PUSH2 0x1DB4 PUSH2 0x160 DUP4 ADD DUP5 PUSH2 0x1692 JUMP JUMPDEST SWAP14 SWAP13 POP POP POP POP POP POP POP POP POP POP POP POP POP JUMP JUMPDEST PUSH1 0x0 PUSH1 0x40 MLOAD SWAP1 POP DUP2 DUP2 ADD DUP2 DUP2 LT PUSH8 0xFFFFFFFFFFFFFFFF DUP3 GT OR ISZERO PUSH2 0x1DEC JUMPI PUSH2 0x1DEB PUSH2 0x20E6 JUMP JUMPDEST JUMPDEST DUP1 PUSH1 0x40 MSTORE POP SWAP2 SWAP1 POP JUMP JUMPDEST PUSH1 0x0 PUSH8 0xFFFFFFFFFFFFFFFF DUP3 GT ISZERO PUSH2 0x1E11 JUMPI PUSH2 0x1E10 PUSH2 0x20E6 JUMP JUMPDEST JUMPDEST PUSH1 0x1F NOT PUSH1 0x1F DUP4 ADD AND SWAP1 POP PUSH1 0x20 DUP2 ADD SWAP1 POP SWAP2 SWAP1 POP JUMP JUMPDEST PUSH1 0x0 DUP2 MLOAD SWAP1 POP SWAP2 SWAP1 POP JUMP JUMPDEST PUSH1 0x0 DUP3 DUP3 MSTORE PUSH1 0x20 DUP3 ADD SWAP1 POP SWAP3 SWAP2 POP POP JUMP JUMPDEST PUSH1 0x0 DUP2 SWAP1 POP SWAP3 SWAP2 POP POP JUMP JUMPDEST PUSH1 0x0 PUSH2 0x1E58 DUP3 PUSH2 0x1FAA JUMP JUMPDEST SWAP2 POP PUSH2 0x1E63 DUP4 PUSH2 0x1FAA JUMP JUMPDEST SWAP3 POP DUP3 PUSH32 0xFFFFFFFFFFFFFFFFFFFFFFFFFFFFFFFFFFFFFFFFFFFFFFFFFFFFFFFFFFFFFFFF SUB DUP3 GT ISZERO PUSH2 0x1E98 JUMPI PUSH2 0x1E97 PUSH2 0x2059 JUMP JUMPDEST JUMPDEST DUP3 DUP3 ADD SWAP1 POP SWAP3 SWAP2 POP POP JUMP JUMPDEST PUSH1 0x0 PUSH2 0x1EAE DUP3 PUSH2 0x1FAA JUMP JUMPDEST SWAP2 POP PUSH2 0x1EB9 DUP4 PUSH2 0x1FAA JUMP JUMPDEST SWAP3 POP DUP3 PUSH2 0x1EC9 JUMPI PUSH2 0x1EC8 PUSH2 0x2088 JUMP JUMPDEST JUMPDEST DUP3 DUP3 DIV SWAP1 POP SWAP3 SWAP2 POP POP JUMP JUMPDEST PUSH1 0x0 PUSH2 0x1EDF DUP3 PUSH2 0x1FAA JUMP JUMPDEST SWAP2 POP PUSH2 0x1EEA DUP4 PUSH2 0x1FAA JUMP JUMPDEST SWAP3 POP DUP2 PUSH32 0xFFFFFFFFFFFFFFFFFFFFFFFFFFFFFFFFFFFFFFFFFFFFFFFFFFFFFFFFFFFFFFFF DIV DUP4 GT DUP3 ISZERO ISZERO AND ISZERO PUSH2 0x1F23 JUMPI PUSH2 0x1F22 PUSH2 0x2059 JUMP JUMPDEST JUMPDEST DUP3 DUP3 MUL SWAP1 POP SWAP3 SWAP2 POP POP JUMP JUMPDEST PUSH1 0x0 PUSH2 0x1F39 DUP3 PUSH2 0x1FAA JUMP JUMPDEST SWAP2 POP PUSH2 0x1F44 DUP4 PUSH2 0x1FAA JUMP JUMPDEST SWAP3 POP DUP3 DUP3 LT ISZERO PUSH2 0x1F57 JUMPI PUSH2 0x1F56 PUSH2 0x2059 JUMP JUMPDEST JUMPDEST DUP3 DUP3 SUB SWAP1 POP SWAP3 SWAP2 POP POP JUMP JUMPDEST PUSH1 0x0 PUSH2 0x1F6D DUP3 PUSH2 0x1F8A JUMP JUMPDEST SWAP1 POP SWAP2 SWAP1 POP JUMP JUMPDEST PUSH1 0x0 DUP2 ISZERO ISZERO SWAP1 POP SWAP2 SWAP1 POP JUMP JUMPDEST PUSH1 0x0 DUP2 SWAP1 POP SWAP2 SWAP1 POP JUMP JUMPDEST PUSH1 0x0 PUSH20 0xFFFFFFFFFFFFFFFFFFFFFFFFFFFFFFFFFFFFFFFF DUP3 AND SWAP1 POP SWAP2 SWAP1 POP JUMP JUMPDEST PUSH1 0x0 DUP2 SWAP1 POP SWAP2 SWAP1 POP JUMP JUMPDEST DUP3 DUP2 DUP4 CALLDATACOPY PUSH1 0x0 DUP4 DUP4 ADD MSTORE POP POP POP JUMP JUMPDEST PUSH1 0x0 JUMPDEST DUP4 DUP2 LT ISZERO PUSH2 0x1FE1 JUMPI DUP1 DUP3 ADD MLOAD DUP2 DUP5 ADD MSTORE PUSH1 0x20 DUP2 ADD SWAP1 POP PUSH2 0x1FC6 JUMP JUMPDEST DUP4 DUP2 GT ISZERO PUSH2 0x1FF0 JUMPI PUSH1 0x0 DUP5 DUP5 ADD MSTORE JUMPDEST POP POP POP POP JUMP JUMPDEST PUSH1 0x0 PUSH1 0x2 DUP3 DIV SWAP1 POP PUSH1 0x1 DUP3 AND DUP1 PUSH2 0x200E JUMPI PUSH1 0x7F DUP3 AND SWAP2 POP JUMPDEST PUSH1 0x20 DUP3 LT DUP2 EQ ISZERO PUSH2 0x2022 JUMPI PUSH2 0x2021 PUSH2 0x20B7 JUMP JUMPDEST JUMPDEST POP SWAP2 SWAP1 POP JUMP JUMPDEST PUSH1 0x0 PUSH2 0x2033 DUP3 PUSH2 0x1FAA JUMP JUMPDEST SWAP2 POP PUSH2 0x203E DUP4 PUSH2 0x1FAA JUMP JUMPDEST SWAP3 POP DUP3 PUSH2 0x204E JUMPI PUSH2 0x204D PUSH2 0x2088 JUMP JUMPDEST JUMPDEST DUP3 DUP3 MOD SWAP1 POP SWAP3 SWAP2 POP POP JUMP JUMPDEST PUSH32 0x4E487B7100000000000000000000000000000000000000000000000000000000 PUSH1 0x0 MSTORE PUSH1 0x11 PUSH1 0x4 MSTORE PUSH1 0x24 PUSH1 0x0 REVERT JUMPDEST PUSH32 0x4E487B7100000000000000000000000000000000000000000000000000000000 PUSH1 0x0 MSTORE PUSH1 0x12 PUSH1 0x4 MSTORE PUSH1 0x24 PUSH1 0x0 REVERT JUMPDEST PUSH32 0x4E487B7100000000000000000000000000000000000000000000000000000000 PUSH1 0x0 MSTORE PUSH1 0x22 PUSH1 0x4 MSTORE PUSH1 0x24 PUSH1 0x0 REVERT JUMPDEST PUSH32 0x4E487B7100000000000000000000000000000000000000000000000000000000 PUSH1 0x0 MSTORE PUSH1 0x41 PUSH1 0x4 MSTORE PUSH1 0x24 PUSH1 0x0 REVERT JUMPDEST PUSH1 0x0 PUSH1 0x1F NOT PUSH1 0x1F DUP4 ADD AND SWAP1 POP SWAP2 SWAP1 POP JUMP JUMPDEST PUSH2 0x212F DUP2 PUSH2 0x1F62 JUMP JUMPDEST DUP2 EQ PUSH2 0x213A JUMPI PUSH1 0x0 DUP1 REVERT JUMPDEST POP JUMP JUMPDEST PUSH2 0x2146 DUP2 PUSH2 0x1F80 JUMP JUMPDEST DUP2 EQ PUSH2 0x2151 JUMPI PUSH1 0x0 DUP1 REVERT JUMPDEST POP JUMP JUMPDEST PUSH2 0x215D DUP2 PUSH2 0x1FAA JUMP JUMPDEST DUP2 EQ PUSH2 0x2168 JUMPI PUSH1 0x0 DUP1 REVERT JUMPDEST POP JUMP INVALID LOG2 PUSH5 0x6970667358 0x22 SLT KECCAK256 SWAP1 0xED EXP 0xD9 PUSH30 0xE2FA8B525A06D2F7913CA10419BC88CA1CC569BAC66A334FACC04D64736F PUSH13 0x63430008000033000000000000 "},"methodIdentifiers":{"accessItem(uint256,uint256,int256)":"dfa49470","addItem(uint256,string,uint256,uint256,uint256,int256,int256)":"26fd99df","claimOwnershipByName(string,uint256,int256)":"0232cc37","distributor()":"bfe10928","getItemDetails(uint256)":"73004ca0","getItemIdByName(string)":"2f4e3faa","items(uint256)":"bfb231d2","retailer()":"4c1249fc","setDistributor(address)":"75619ab5","setRetailer(address)":"4a1f6125"}}}}}