{
  "_format": "hh-sol-artifact-1",
  "contractName": "SupplyChain",
  "sourceName": "contracts/SupplyChain.sol",
  "abi": [
    {
      "anonymous": false,
      "inputs": [
        {
          "indexed": true,
          "internalType": "uint256",
          "name": "itemId",
          "type": "uint256"
        },
        {
          "indexed": false,
          "internalType": "string",
          "name": "itemName",
          "type": "string"
        },
        {
          "indexed": false,
          "internalType": "uint256",
          "name": "totalQty",
          "type": "uint256"
        }
      ],
      "name": "ItemAdded",
      "type": "event"
    },
    {
      "anonymous": false,
      "inputs": [
        {
          "indexed": true,
          "internalType": "uint256",
          "name": "itemId",
          "type": "uint256"
        },
        {
          "indexed": false,
          "internalType": "string",
          "name": "reason",
          "type": "string"
        }
      ],
      "name": "ItemBlocked",
      "type": "event"
    },
    {
      "anonymous": false,
      "inputs": [
        {
          "indexed": true,
          "internalType": "uint256",
          "name": "itemId",
          "type": "uint256"
        },
        {
          "indexed": false,
          "internalType": "address",
          "name": "previousOwner",
          "type": "address"
        },
        {
          "indexed": false,
          "internalType": "address",
          "name": "newOwner",
          "type": "address"
        }
      ],
      "name": "OwnershipTransferred",
      "type": "event"
    },
    {
      "inputs": [
        {
          "internalType": "uint256",
          "name": "_itemId",
          "type": "uint256"
        },
        {
          "internalType": "uint256",
          "name": "_qty",
          "type": "uint256"
        },
        {
          "internalType": "int256",
          "name": "sensedTemperature",
          "type": "int256"
        }
      ],
      "name": "accessItem",
      "outputs": [],
      "stateMutability": "nonpayable",
      "type": "function"
    },
    {
      "inputs": [
        {
          "internalType": "uint256",
          "name": "_itemId",
          "type": "uint256"
        },
        {
          "internalType": "string",
          "name": "_itemName",
          "type": "string"
        },
        {
          "internalType": "uint256",
          "name": "_mfDate",
          "type": "uint256"
        },
        {
          "internalType": "uint256",
          "name": "_expDate",
          "type": "uint256"
        },
        {
          "internalType": "uint256",
          "name": "_totalQty",
          "type": "uint256"
        },
        {
          "internalType": "int256",
          "name": "_minTemp",
          "type": "int256"
        },
        {
          "internalType": "int256",
          "name": "_maxTemp",
          "type": "int256"
        }
      ],
      "name": "addItem",
      "outputs": [],
      "stateMutability": "nonpayable",
      "type": "function"
    },
    {
      "inputs": [
        {
          "internalType": "string",
          "name": "_itemName",
          "type": "string"
        },
        {
          "internalType": "uint256",
          "name": "_qty",
          "type": "uint256"
        },
        {
          "internalType": "int256",
          "name": "sensedTemperature",
          "type": "int256"
        }
      ],
      "name": "claimOwnershipByName",
      "outputs": [],
      "stateMutability": "nonpayable",
      "type": "function"
    },
    {
      "inputs": [],
      "name": "distributor",
      "outputs": [
        {
          "internalType": "address",
          "name": "",
          "type": "address"
        }
      ],
      "stateMutability": "view",
      "type": "function"
    },
    {
      "inputs": [
        {
          "internalType": "uint256",
          "name": "_itemId",
          "type": "uint256"
        }
      ],
      "name": "getItemDetails",
      "outputs": [
        {
          "internalType": "string",
          "name": "itemName",
          "type": "string"
        },
        {
          "internalType": "uint256",
          "name": "manufacturingDate",
          "type": "uint256"
        },
        {
          "internalType": "uint256",
          "name": "expiryDate",
          "type": "uint256"
        },
        {
          "internalType": "uint256",
          "name": "totalQuantity",
          "type": "uint256"
        },
        {
          "internalType": "uint256",
          "name": "distributorStock",
          "type": "uint256"
        },
        {
          "internalType": "uint256",
          "name": "retailerStock",
          "type": "uint256"
        },
        {
          "internalType": "uint256",
          "name": "customerStock",
          "type": "uint256"
        },
        {
          "internalType": "int256",
          "name": "minTemperature",
          "type": "int256"
        },
        {
          "internalType": "int256",
          "name": "maxTemperature",
          "type": "int256"
        },
        {
          "internalType": "bool",
          "name": "isItemBlocked",
          "type": "bool"
        }
      ],
      "stateMutability": "view",
      "type": "function"
    },
    {
      "inputs": [
        {
          "internalType": "string",
          "name": "_itemName",
          "type": "string"
        }
      ],
      "name": "getItemIdByName",
      "outputs": [
        {
          "internalType": "uint256",
          "name": "",
          "type": "uint256"
        }
      ],
      "stateMutability": "view",
      "type": "function"
    },
    {
      "inputs": [
        {
          "internalType": "uint256",
          "name": "",
          "type": "uint256"
        }
      ],
      "name": "items",
      "outputs": [
        {
          "internalType": "uint256",
          "name": "itemId",
          "type": "uint256"
        },
        {
          "internalType": "string",
          "name": "itemName",
          "type": "string"
        },
        {
          "internalType": "uint256",
          "name": "itemMfD",
          "type": "uint256"
        },
        {
          "internalType": "uint256",
          "name": "itemExpD",
          "type": "uint256"
        },
        {
          "internalType": "uint256",
          "name": "totalQty",
          "type": "uint256"
        },
        {
          "internalType": "uint256",
          "name": "distributorQty",
          "type": "uint256"
        },
        {
          "internalType": "uint256",
          "name": "retailerQty",
          "type": "uint256"
        },
        {
          "internalType": "uint256",
          "name": "customerQty",
          "type": "uint256"
        },
        {
          "internalType": "address",
          "name": "currentOwner",
          "type": "address"
        },
        {
          "internalType": "int256",
          "name": "minTemp",
          "type": "int256"
        },
        {
          "internalType": "int256",
          "name": "maxTemp",
          "type": "int256"
        },
        {
          "internalType": "bool",
          "name": "isBlocked",
          "type": "bool"
        }
      ],
      "stateMutability": "view",
      "type": "function"
    },
    {
      "inputs": [],
      "name": "retailer",
      "outputs": [
        {
          "internalType": "address",
          "name": "",
          "type": "address"
        }
      ],
      "stateMutability": "view",
      "type": "function"
    },
    {
      "inputs": [
        {
          "internalType": "address",
          "name": "_distributor",
          "type": "address"
        }
      ],
      "name": "setDistributor",
      "outputs": [],
      "stateMutability": "nonpayable",
      "type": "function"
    },
    {
      "inputs": [
        {
          "internalType": "address",
          "name": "_retailer",
          "type": "address"
        }
      ],
      "name": "setRetailer",
      "outputs": [],
      "stateMutability": "nonpayable",
      "type": "function"
    }
  ],
  "bytecode": "0x608060405234801561001057600080fd5b506121a1806100206000396000f3fe608060405234801561001057600080fd5b506004361061009e5760003560e01c806373004ca01161006657806373004ca01461014557806375619ab51461017e578063bfb231d21461019a578063bfe10928146101d5578063dfa49470146101f35761009e565b80630232cc37146100a357806326fd99df146100bf5780632f4e3faa146100db5780634a1f61251461010b5780634c1249fc14610127575b600080fd5b6100bd60048036038101906100b891906114ee565b61020f565b005b6100d960048036038101906100d4919061157e565b6105cc565b005b6100f560048036038101906100f091906114ad565b610941565b6040516101029190611ce9565b60405180910390f35b61012560048036038101906101209190611484565b6109ca565b005b61012f610a0e565b60405161013c9190611a72565b60405180910390f35b61015f600480360381019061015a9190611555565b610a34565b6040516101759a99989796959493929190611ae6565b60405180910390f35b61019860048036038101906101939190611484565b610c74565b005b6101b460048036038101906101af9190611555565b610cb7565b6040516101cc9c9b9a99989796959493929190611d04565b60405180910390f35b6101dd610dcc565b6040516101ea9190611a72565b60405180910390f35b61020d60048036038101906102089190611634565b610df0565b005b600061021a84610941565b90506000811415610260576040517f08c379a000000000000000000000000000000000000000000000000000000000815260040161025790611c69565b60405180910390fd5b60026000828152602001908152602001600020600b0160009054906101000a900460ff16156102c4576040517f08c379a00000000000000000000000000000000000000000000000000000000081526004016102bb90611be9565b60405180910390fd5b826002600083815260200190815260200160002060060154101561031d576040517f08c379a000000000000000000000000000000000000000000000000000000000815260040161031490611cc9565b60405180910390fd5b600160009054906101000a900473ffffffffffffffffffffffffffffffffffffffff1673ffffffffffffffffffffffffffffffffffffffff166002600083815260200190815260200160002060080160009054906101000a900473ffffffffffffffffffffffffffffffffffffffff1673ffffffffffffffffffffffffffffffffffffffff16146103e3576040517f08c379a00000000000000000000000000000000000000000000000000000000081526004016103da90611c89565b60405180910390fd5b60006103ed611284565b90506002600083815260200190815260200160002060090154831280610428575060026000838152602001908152602001600020600a015483135b806104485750600260008381526020019081526020016000206003015481115b156104b957600160026000848152602001908152602001600020600b0160006101000a81548160ff021916908315150217905550817f0789eb0c3dd244c89eb473edfce19f6fa594826f1f0faf2cf3908f7fd3837bcd6040516104aa90611ca9565b60405180910390a250506105c7565b836002600084815260200190815260200160002060060160008282546104df9190611f2e565b925050819055508360026000848152602001908152602001600020600701600082825461050c9190611e4d565b92505081905550336002600084815260200190815260200160002060080160006101000a81548173ffffffffffffffffffffffffffffffffffffffff021916908373ffffffffffffffffffffffffffffffffffffffff160217905550817f16b85f49bf01212961345d3016c9a531894accf62eb7680f2045d79185cc0ec0600160009054906101000a900473ffffffffffffffffffffffffffffffffffffffff16336040516105bc929190611a8d565b60405180910390a250505b505050565b60008054906101000a900473ffffffffffffffffffffffffffffffffffffffff1673ffffffffffffffffffffffffffffffffffffffff163373ffffffffffffffffffffffffffffffffffffffff161461065a576040517f08c379a000000000000000000000000000000000000000000000000000000000815260040161065190611c29565b60405180910390fd5b60006002600089815260200190815260200160002060000154146106b3576040517f08c379a00000000000000000000000000000000000000000000000000000000081526004016106aa90611c09565b60405180910390fd5b60006003876040516106c59190611a5b565b90815260200160405180910390205414610714576040517f08c379a000000000000000000000000000000000000000000000000000000000815260040161070b90611b89565b60405180910390fd5b838510610756576040517f08c379a000000000000000000000000000000000000000000000000000000000815260040161074d90611ba9565b60405180910390fd5b604051806101800160405280888152602001878152602001868152602001858152602001848152602001848152602001600081526020016000815260200160008054906101000a900473ffffffffffffffffffffffffffffffffffffffff1673ffffffffffffffffffffffffffffffffffffffff168152602001838152602001828152602001600015158152506002600089815260200190815260200160002060008201518160000155602082015181600101908051906020019061081c92919061133a565b5060408201518160020155606082015181600301556080820151816004015560a0820151816005015560c0820151816006015560e082015181600701556101008201518160080160006101000a81548173ffffffffffffffffffffffffffffffffffffffff021916908373ffffffffffffffffffffffffffffffffffffffff160217905550610120820151816009015561014082015181600a015561016082015181600b0160006101000a81548160ff021916908315150217905550905050866003876040516108ec9190611a5b565b908152602001604051809103902081905550867f0444434676a57f70f8479401c50fb4add3e31052f88f4b35e155b7759e5968e58785604051610930929190611ab6565b60405180910390a250505050505050565b6000806003836040516109549190611a5b565b90815260200160405180910390205414156109a4576040517f08c379a000000000000000000000000000000000000000000000000000000000815260040161099b90611c69565b60405180910390fd5b6003826040516109b49190611a5b565b9081526020016040518091039020549050919050565b80600160006101000a81548173ffffffffffffffffffffffffffffffffffffffff021916908373ffffffffffffffffffffffffffffffffffffffff16021790555050565b600160009054906101000a900473ffffffffffffffffffffffffffffffffffffffff1681565b6060600080600080600080600080600080600260008d8152602001908152602001600020600001541415610a9d576040517f08c379a0000000000000000000000000000000000000000000000000000000008152600401610a9490611c69565b60405180910390fd5b6000600260008d81526020019081526020016000206040518061018001604052908160008201548152602001600182018054610ad890611ff6565b80601f0160208091040260200160405190810160405280929190818152602001828054610b0490611ff6565b8015610b515780601f10610b2657610100808354040283529160200191610b51565b820191906000526020600020905b815481529060010190602001808311610b3457829003601f168201915b505050505081526020016002820154815260200160038201548152602001600482015481526020016005820154815260200160068201548152602001600782015481526020016008820160009054906101000a900473ffffffffffffffffffffffffffffffffffffffff1673ffffffffffffffffffffffffffffffffffffffff1673ffffffffffffffffffffffffffffffffffffffff16815260200160098201548152602001600a8201548152602001600b820160009054906101000a900460ff161515151581525050905080602001518160400151826060015183608001518460a001518560c001518660e001518761012001518861014001518961016001519a509a509a509a509a509a509a509a509a509a50509193959799509193959799565b806000806101000a81548173ffffffffffffffffffffffffffffffffffffffff021916908373ffffffffffffffffffffffffffffffffffffffff16021790555050565b6002602052806000526040600020600091509050806000015490806001018054610ce090611ff6565b80601f0160208091040260200160405190810160405280929190818152602001828054610d0c90611ff6565b8015610d595780601f10610d2e57610100808354040283529160200191610d59565b820191906000526020600020905b815481529060010190602001808311610d3c57829003601f168201915b5050505050908060020154908060030154908060040154908060050154908060060154908060070154908060080160009054906101000a900473ffffffffffffffffffffffffffffffffffffffff169080600901549080600a01549080600b0160009054906101000a900460ff1690508c565b60008054906101000a900473ffffffffffffffffffffffffffffffffffffffff1681565b600160009054906101000a900473ffffffffffffffffffffffffffffffffffffffff1673ffffffffffffffffffffffffffffffffffffffff163373ffffffffffffffffffffffffffffffffffffffff1614610e80576040517f08c379a0000000000000000000000000000000000000000000000000000000008152600401610e7790611bc9565b60405180910390fd5b600060026000858152602001908152602001600020600001541415610eda576040517f08c379a0000000000000000000000000000000000000000000000000000000008152600401610ed190611c69565b60405180910390fd5b60026000848152602001908152602001600020600b0160009054906101000a900460ff1615610f3e576040517f08c379a0000000000000000000000000000000000000000000000000000000008152600401610f3590611be9565b60405180910390fd5b8160026000858152602001908152602001600020600501541015610f97576040517f08c379a0000000000000000000000000000000000000000000000000000000008152600401610f8e90611cc9565b60405180910390fd5b60008054906101000a900473ffffffffffffffffffffffffffffffffffffffff1673ffffffffffffffffffffffffffffffffffffffff166002600085815260200190815260200160002060080160009054906101000a900473ffffffffffffffffffffffffffffffffffffffff1673ffffffffffffffffffffffffffffffffffffffff161461105b576040517f08c379a000000000000000000000000000000000000000000000000000000000815260040161105290611c49565b60405180910390fd5b6000611065611284565b905060026000858152602001908152602001600020600901548212806110a0575060026000858152602001908152602001600020600a015482135b806110c05750600260008581526020019081526020016000206003015481115b1561113057600160026000868152602001908152602001600020600b0160006101000a81548160ff021916908315150217905550837f0789eb0c3dd244c89eb473edfce19f6fa594826f1f0faf2cf3908f7fd3837bcd60405161112290611ca9565b60405180910390a25061127f565b826002600086815260200190815260200160002060050160008282546111569190611f2e565b92505081905550826002600086815260200190815260200160002060060160008282546111839190611e4d565b92505081905550600160009054906101000a900473ffffffffffffffffffffffffffffffffffffffff166002600086815260200190815260200160002060080160006101000a81548173ffffffffffffffffffffffffffffffffffffffff021916908373ffffffffffffffffffffffffffffffffffffffff160217905550837f16b85f49bf01212961345d3016c9a531894accf62eb7680f2045d79185cc0ec060008054906101000a900473ffffffffffffffffffffffffffffffffffffffff16600160009054906101000a900473ffffffffffffffffffffffffffffffffffffffff16604051611275929190611a8d565b60405180910390a2505b505050565b60008042905060006301e1853e8261129c9190611ea3565b6107b26112a99190611e4d565b905060006001600c6228206f856112c09190611ea3565b6112ca9190612028565b6112d49190611e4d565b905060006001601f62015180866112eb9190611ea3565b6112f59190612028565b6112ff9190611e4d565b90508060648361130f9190611ed4565b6127108561131d9190611ed4565b6113279190611e4d565b6113319190611e4d565b94505050505090565b82805461134690611ff6565b90600052602060002090601f01602090048101928261136857600085556113af565b82601f1061138157805160ff19168380011785556113af565b828001600101855582156113af579182015b828111156113ae578251825591602001919060010190611393565b5b5090506113bc91906113c0565b5090565b5b808211156113d95760008160009055506001016113c1565b5090565b60006113f06113eb84611df6565b611dc5565b90508281526020810184848401111561140857600080fd5b611413848285611fb4565b509392505050565b60008135905061142a81612126565b92915050565b60008135905061143f8161213d565b92915050565b600082601f83011261145657600080fd5b81356114668482602086016113dd565b91505092915050565b60008135905061147e81612154565b92915050565b60006020828403121561149657600080fd5b60006114a48482850161141b565b91505092915050565b6000602082840312156114bf57600080fd5b600082013567ffffffffffffffff8111156114d957600080fd5b6114e584828501611445565b91505092915050565b60008060006060848603121561150357600080fd5b600084013567ffffffffffffffff81111561151d57600080fd5b61152986828701611445565b935050602061153a8682870161146f565b925050604061154b86828701611430565b9150509250925092565b60006020828403121561156757600080fd5b60006115758482850161146f565b91505092915050565b600080600080600080600060e0888a03121561159957600080fd5b60006115a78a828b0161146f565b975050602088013567ffffffffffffffff8111156115c457600080fd5b6115d08a828b01611445565b96505060406115e18a828b0161146f565b95505060606115f28a828b0161146f565b94505060806116038a828b0161146f565b93505060a06116148a828b01611430565b92505060c06116258a828b01611430565b91505092959891949750929550565b60008060006060848603121561164957600080fd5b60006116578682870161146f565b93505060206116688682870161146f565b925050604061167986828701611430565b9150509250925092565b61168c81611f62565b82525050565b61169b81611f74565b82525050565b6116aa81611f80565b82525050565b60006116bb82611e26565b6116c58185611e31565b93506116d5818560208601611fc3565b6116de81612115565b840191505092915050565b60006116f482611e26565b6116fe8185611e42565b935061170e818560208601611fc3565b80840191505092915050565b6000611727601883611e31565b91507f4974656d206e616d6520616c72656164792065786973747300000000000000006000830152602082019050919050565b6000611767602d83611e31565b91507f4d616e75666163747572696e672064617465206d757374206265206265666f7260008301527f65206578706972792064617465000000000000000000000000000000000000006020830152604082019050919050565b60006117cd602483611e31565b91507f4f6e6c792072657461696c65722063616e2063616c6c20746869732066756e6360008301527f74696f6e000000000000000000000000000000000000000000000000000000006020830152604082019050919050565b6000611833600f83611e31565b91507f4974656d20697320626c6f636b656400000000000000000000000000000000006000830152602082019050919050565b6000611873601683611e31565b91507f4974656d20494420616c726561647920657869737473000000000000000000006000830152602082019050919050565b60006118b3602783611e31565b91507f4f6e6c79206469737472696275746f722063616e2063616c6c2074686973206660008301527f756e6374696f6e000000000000000000000000000000000000000000000000006020830152604082019050919050565b6000611919601983611e31565b91507f4974656d206e6f742077697468206469737472696275746f72000000000000006000830152602082019050919050565b6000611959601383611e31565b91507f4974656d20646f6573206e6f74206578697374000000000000000000000000006000830152602082019050919050565b6000611999601683611e31565b91507f4974656d206e6f7420776974682072657461696c6572000000000000000000006000830152602082019050919050565b60006119d9601b83611e31565b91507f54656d7065726174757265206f722065787069727920697373756500000000006000830152602082019050919050565b6000611a19601583611e31565b91507f496e73756666696369656e74207175616e7469747900000000000000000000006000830152602082019050919050565b611a5581611faa565b82525050565b6000611a6782846116e9565b915081905092915050565b6000602082019050611a876000830184611683565b92915050565b6000604082019050611aa26000830185611683565b611aaf6020830184611683565b9392505050565b60006040820190508181036000830152611ad081856116b0565b9050611adf6020830184611a4c565b9392505050565b6000610140820190508181036000830152611b01818d6116b0565b9050611b10602083018c611a4c565b611b1d604083018b611a4c565b611b2a606083018a611a4c565b611b376080830189611a4c565b611b4460a0830188611a4c565b611b5160c0830187611a4c565b611b5e60e08301866116a1565b611b6c6101008301856116a1565b611b7a610120830184611692565b9b9a5050505050505050505050565b60006020820190508181036000830152611ba28161171a565b9050919050565b60006020820190508181036000830152611bc28161175a565b9050919050565b60006020820190508181036000830152611be2816117c0565b9050919050565b60006020820190508181036000830152611c0281611826565b9050919050565b60006020820190508181036000830152611c2281611866565b9050919050565b60006020820190508181036000830152611c42816118a6565b9050919050565b60006020820190508181036000830152611c628161190c565b9050919050565b60006020820190508181036000830152611c828161194c565b9050919050565b60006020820190508181036000830152611ca28161198c565b9050919050565b60006020820190508181036000830152611cc2816119cc565b9050919050565b60006020820190508181036000830152611ce281611a0c565b9050919050565b6000602082019050611cfe6000830184611a4c565b92915050565b600061018082019050611d1a600083018f611a4c565b8181036020830152611d2c818e6116b0565b9050611d3b604083018d611a4c565b611d48606083018c611a4c565b611d55608083018b611a4c565b611d6260a083018a611a4c565b611d6f60c0830189611a4c565b611d7c60e0830188611a4c565b611d8a610100830187611683565b611d986101208301866116a1565b611da66101408301856116a1565b611db4610160830184611692565b9d9c50505050505050505050505050565b6000604051905081810181811067ffffffffffffffff82111715611dec57611deb6120e6565b5b8060405250919050565b600067ffffffffffffffff821115611e1157611e106120e6565b5b601f19601f8301169050602081019050919050565b600081519050919050565b600082825260208201905092915050565b600081905092915050565b6000611e5882611faa565b9150611e6383611faa565b9250827fffffffffffffffffffffffffffffffffffffffffffffffffffffffffffffffff03821115611e9857611e97612059565b5b828201905092915050565b6000611eae82611faa565b9150611eb983611faa565b925082611ec957611ec8612088565b5b828204905092915050565b6000611edf82611faa565b9150611eea83611faa565b9250817fffffffffffffffffffffffffffffffffffffffffffffffffffffffffffffffff0483118215151615611f2357611f22612059565b5b828202905092915050565b6000611f3982611faa565b9150611f4483611faa565b925082821015611f5757611f56612059565b5b828203905092915050565b6000611f6d82611f8a565b9050919050565b60008115159050919050565b6000819050919050565b600073ffffffffffffffffffffffffffffffffffffffff82169050919050565b6000819050919050565b82818337600083830152505050565b60005b83811015611fe1578082015181840152602081019050611fc6565b83811115611ff0576000848401525b50505050565b6000600282049050600182168061200e57607f821691505b60208210811415612022576120216120b7565b5b50919050565b600061203382611faa565b915061203e83611faa565b92508261204e5761204d612088565b5b828206905092915050565b7f4e487b7100000000000000000000000000000000000000000000000000000000600052601160045260246000fd5b7f4e487b7100000000000000000000000000000000000000000000000000000000600052601260045260246000fd5b7f4e487b7100000000000000000000000000000000000000000000000000000000600052602260045260246000fd5b7f4e487b7100000000000000000000000000000000000000000000000000000000600052604160045260246000fd5b6000601f19601f8301169050919050565b61212f81611f62565b811461213a57600080fd5b50565b61214681611f80565b811461215157600080fd5b50565b61215d81611faa565b811461216857600080fd5b5056fea264697066735822122090ed0ad97de2fa8b525a06d2f7913ca10419bc88ca1cc569bac66a334facc04d64736f6c63430008000033",
  "linkReferences": {},
  "deployedLinkReferences": {}
}